{
  "contractName": "CartellaClinica",
  "abi": [
    {
      "constant": false,
      "inputs": [
        {
          "internalType": "address",
          "name": "_idUser",
          "type": "address"
        },
        {
          "internalType": "string",
          "name": "_userType",
          "type": "string"
        },
        {
          "internalType": "string",
          "name": "_name",
          "type": "string"
        },
        {
          "internalType": "string",
          "name": "_surname",
          "type": "string"
        }
      ],
      "name": "newCartellaClinica",
      "outputs": [],
      "payable": false,
      "stateMutability": "nonpayable",
      "type": "function"
    },
    {
      "constant": false,
      "inputs": [
        {
          "internalType": "address",
          "name": "_idUser",
          "type": "address"
        }
      ],
      "name": "getCartellaClinica",
      "outputs": [
        {
          "components": [
            {
              "components": [
                {
                  "internalType": "address",
                  "name": "idUser",
                  "type": "address"
                },
                {
                  "internalType": "string",
                  "name": "userType",
                  "type": "string"
                },
                {
                  "internalType": "string",
                  "name": "name",
                  "type": "string"
                },
                {
                  "internalType": "string",
                  "name": "surname",
                  "type": "string"
                },
                {
                  "internalType": "address",
                  "name": "owner",
                  "type": "address"
                }
              ],
              "internalType": "struct CartellaClinica.User",
              "name": "paziente",
              "type": "tuple"
            },
            {
              "components": [
                {
                  "internalType": "address",
                  "name": "idOperatore",
                  "type": "address"
                },
                {
                  "internalType": "string",
                  "name": "dataPrescrizioneEsame",
                  "type": "string"
                },
                {
                  "internalType": "string",
                  "name": "oggetto",
                  "type": "string"
                },
                {
                  "internalType": "string",
                  "name": "esito",
                  "type": "string"
                },
                {
                  "internalType": "string",
                  "name": "stato",
                  "type": "string"
                }
              ],
              "internalType": "struct CartellaClinica.Esame[]",
              "name": "esami",
              "type": "tuple[]"
            }
          ],
          "internalType": "struct CartellaClinica.CartellaClinica",
          "name": "",
          "type": "tuple"
        }
      ],
      "payable": false,
      "stateMutability": "nonpayable",
      "type": "function"
    }
  ],
  "bytecode": "0x608060405234801561001057600080fd5b50610edb806100206000396000f3fe608060405234801561001057600080fd5b50600436106100365760003560e01c80632ccbb44e1461003b57806375fe294114610057575b600080fd5b61005560048036036100509190810190610a5d565b610087565b005b610071600480360361006c9190810190610a34565b610215565b60405161007e9190610d2c565b60405180910390f35b61008f610850565b6040518060a001604052808673ffffffffffffffffffffffffffffffffffffffff1681526020018581526020018481526020018381526020013373ffffffffffffffffffffffffffffffffffffffff168152509050806000808773ffffffffffffffffffffffffffffffffffffffff1673ffffffffffffffffffffffffffffffffffffffff16815260200190815260200160002060000160008201518160000160006101000a81548173ffffffffffffffffffffffffffffffffffffffff021916908373ffffffffffffffffffffffffffffffffffffffff16021790555060208201518160010190805190602001906101899291906108ab565b5060408201518160020190805190602001906101a69291906108ab565b5060608201518160030190805190602001906101c39291906108ab565b5060808201518160040160006101000a81548173ffffffffffffffffffffffffffffffffffffffff021916908373ffffffffffffffffffffffffffffffffffffffff1602179055509050505050505050565b61021d61092b565b6000808373ffffffffffffffffffffffffffffffffffffffff1673ffffffffffffffffffffffffffffffffffffffff168152602001908152602001600020604051806040016040529081600082016040518060a00160405290816000820160009054906101000a900473ffffffffffffffffffffffffffffffffffffffff1673ffffffffffffffffffffffffffffffffffffffff1673ffffffffffffffffffffffffffffffffffffffff168152602001600182018054600181600116156101000203166002900480601f0160208091040260200160405190810160405280929190818152602001828054600181600116156101000203166002900480156103655780601f1061033a57610100808354040283529160200191610365565b820191906000526020600020905b81548152906001019060200180831161034857829003601f168201915b50505050508152602001600282018054600181600116156101000203166002900480601f0160208091040260200160405190810160405280929190818152602001828054600181600116156101000203166002900480156104075780601f106103dc57610100808354040283529160200191610407565b820191906000526020600020905b8154815290600101906020018083116103ea57829003601f168201915b50505050508152602001600382018054600181600116156101000203166002900480601f0160208091040260200160405190810160405280929190818152602001828054600181600116156101000203166002900480156104a95780601f1061047e576101008083540402835291602001916104a9565b820191906000526020600020905b81548152906001019060200180831161048c57829003601f168201915b505050505081526020016004820160009054906101000a900473ffffffffffffffffffffffffffffffffffffffff1673ffffffffffffffffffffffffffffffffffffffff1673ffffffffffffffffffffffffffffffffffffffff1681525050815260200160058201805480602002602001604051908101604052809291908181526020016000905b8282101561084157838290600052602060002090600502016040518060a00160405290816000820160009054906101000a900473ffffffffffffffffffffffffffffffffffffffff1673ffffffffffffffffffffffffffffffffffffffff1673ffffffffffffffffffffffffffffffffffffffff168152602001600182018054600181600116156101000203166002900480601f0160208091040260200160405190810160405280929190818152602001828054600181600116156101000203166002900480156106435780601f1061061857610100808354040283529160200191610643565b820191906000526020600020905b81548152906001019060200180831161062657829003601f168201915b50505050508152602001600282018054600181600116156101000203166002900480601f0160208091040260200160405190810160405280929190818152602001828054600181600116156101000203166002900480156106e55780601f106106ba576101008083540402835291602001916106e5565b820191906000526020600020905b8154815290600101906020018083116106c857829003601f168201915b50505050508152602001600382018054600181600116156101000203166002900480601f0160208091040260200160405190810160405280929190818152602001828054600181600116156101000203166002900480156107875780601f1061075c57610100808354040283529160200191610787565b820191906000526020600020905b81548152906001019060200180831161076a57829003601f168201915b50505050508152602001600482018054600181600116156101000203166002900480601f0160208091040260200160405190810160405280929190818152602001828054600181600116156101000203166002900480156108295780601f106107fe57610100808354040283529160200191610829565b820191906000526020600020905b81548152906001019060200180831161080c57829003601f168201915b50505050508152505081526020019060010190610531565b50505050815250509050919050565b6040518060a00160405280600073ffffffffffffffffffffffffffffffffffffffff168152602001606081526020016060815260200160608152602001600073ffffffffffffffffffffffffffffffffffffffff1681525090565b828054600181600116156101000203166002900490600052602060002090601f016020900481019282601f106108ec57805160ff191683800117855561091a565b8280016001018555821561091a579182015b828111156109195782518255916020019190600101906108fe565b5b509050610927919061094b565b5090565b604051806040016040528061093e610970565b8152602001606081525090565b61096d91905b80821115610969576000816000905550600101610951565b5090565b90565b6040518060a00160405280600073ffffffffffffffffffffffffffffffffffffffff168152602001606081526020016060815260200160608152602001600073ffffffffffffffffffffffffffffffffffffffff1681525090565b6000813590506109da81610e81565b92915050565b600082601f8301126109f157600080fd5b8135610a046109ff82610d7b565b610d4e565b91508082526020830160208301858383011115610a2057600080fd5b610a2b838284610e2e565b50505092915050565b600060208284031215610a4657600080fd5b6000610a54848285016109cb565b91505092915050565b60008060008060808587031215610a7357600080fd5b6000610a81878288016109cb565b945050602085013567ffffffffffffffff811115610a9e57600080fd5b610aaa878288016109e0565b935050604085013567ffffffffffffffff811115610ac757600080fd5b610ad3878288016109e0565b925050606085013567ffffffffffffffff811115610af057600080fd5b610afc878288016109e0565b91505092959194509250565b6000610b148383610c1d565b905092915050565b610b2581610dfc565b82525050565b6000610b3682610db7565b610b408185610dda565b935083602082028501610b5285610da7565b8060005b85811015610b8e5784840389528151610b6f8582610b08565b9450610b7a83610dcd565b925060208a01995050600181019050610b56565b50829750879550505050505092915050565b6000610bab82610dc2565b610bb58185610deb565b9350610bc5818560208601610e3d565b610bce81610e70565b840191505092915050565b60006040830160008301518482036000860152610bf68282610ca8565b91505060208301518482036020860152610c108282610b2b565b9150508091505092915050565b600060a083016000830151610c356000860182610b1c565b5060208301518482036020860152610c4d8282610ba0565b91505060408301518482036040860152610c678282610ba0565b91505060608301518482036060860152610c818282610ba0565b91505060808301518482036080860152610c9b8282610ba0565b9150508091505092915050565b600060a083016000830151610cc06000860182610b1c565b5060208301518482036020860152610cd88282610ba0565b91505060408301518482036040860152610cf28282610ba0565b91505060608301518482036060860152610d0c8282610ba0565b9150506080830151610d216080860182610b1c565b508091505092915050565b60006020820190508181036000830152610d468184610bd9565b905092915050565b6000604051905081810181811067ffffffffffffffff82111715610d7157600080fd5b8060405250919050565b600067ffffffffffffffff821115610d9257600080fd5b601f19601f8301169050602081019050919050565b6000819050602082019050919050565b600081519050919050565b600081519050919050565b6000602082019050919050565b600082825260208201905092915050565b600082825260208201905092915050565b6000610e0782610e0e565b9050919050565b600073ffffffffffffffffffffffffffffffffffffffff82169050919050565b82818337600083830152505050565b60005b83811015610e5b578082015181840152602081019050610e40565b83811115610e6a576000848401525b50505050565b6000601f19601f8301169050919050565b610e8a81610dfc565b8114610e9557600080fd5b5056fea365627a7a7231582015e070c954cb2155269c9a3a2c88db05339b62b93f2917717332c919df0faafa6c6578706572696d656e74616cf564736f6c63430005100040",
  "source": "pragma solidity >=0.4.22 <0.8.0;\npragma experimental ABIEncoderV2;\n\ncontract CartellaClinica {\n\n    mapping(address => CartellaClinica) cartelleCliniche;\n\n    struct User {\n        address idUser;\n        string userType;\n        string name;\n        string surname;\n        address owner;\n    }\n\n    struct Esame {\n        // string idEsame\n        address idOperatore;\n        string dataPrescrizioneEsame;\n        string oggetto;\n        string esito;\n        string stato;\n    }\n\n    struct CartellaClinica {\n        User paziente;\n        Esame[] esami;\n    }\n\n    function newCartellaClinica(address _idUser,\n        string memory _userType,\n        string memory _name,\n        string memory _surname) public {\n\n        User memory utente = User (_idUser, \n            _userType, \n            _name,\n            _surname, \n            msg.sender);\n\n        // Esame[] memory esami = new Esame[](0);\n        \n        // CartellaClinica memory cartella = CartellaClinica(utente, esami);\n        // cartelleCliniche.push(cartella);\n        cartelleCliniche[_idUser].paziente = utente; \n    }\n\n    function getCartellaClinica(address _idUser) public returns (CartellaClinica memory) {\n        return cartelleCliniche[_idUser];\n    }\n\n}",
  "sourcePath": "/Users/robertomicoccio/Documents/Projects/blockchain_prj/HealtyChian/contracts/CartellaClinica.sol",
  "compiler": {
    "name": "solc",
    "version": "0.5.16+commit.9c3226ce.Emscripten.clang"
  },
  "schemaVersion": "3.4.4",
  "updatedAt": "2022-01-26T22:32:25.172Z",
  "networkType": "ethereum",
  "devdoc": {
    "methods": {}
  },
  "userdoc": {
    "methods": {}
  }
}