{
  "contractName": "CartellaClinica",
  "abi": [
    {
      "constant": false,
      "inputs": [
        {
          "name": "_idUser",
          "type": "address"
        },
        {
          "name": "_userType",
          "type": "string"
        },
        {
          "name": "_name",
          "type": "string"
        },
        {
          "name": "_surname",
          "type": "string"
        }
      ],
      "name": "newCartellaClinica",
      "outputs": [],
      "payable": false,
      "stateMutability": "nonpayable",
      "type": "function"
    },
    {
      "constant": true,
      "inputs": [
        {
          "name": "_idUser",
          "type": "address"
        }
      ],
      "name": "getCartellaClinica",
      "outputs": [
        {
          "name": "",
          "type": "string"
        }
      ],
      "payable": false,
      "stateMutability": "view",
      "type": "function"
    }
  ],
  "bytecode": "0x60806040526040518060400160405280600881526020017f50415a49454e54450000000000000000000000000000000000000000000000008152506001908051906020019061004f929190610062565b5034801561005c57600080fd5b50610107565b828054600181600116156101000203166002900490600052602060002090601f016020900481019282601f106100a357805160ff19168380011785556100d1565b828001600101855582156100d1579182015b828111156100d05782518255916020019190600101906100b5565b5b5090506100de91906100e2565b5090565b61010491905b808211156101005760008160009055506001016100e8565b5090565b90565b6106de806101166000396000f3fe608060405234801561001057600080fd5b50600436106100365760003560e01c80632ccbb44e1461003b57806375fe294114610057575b600080fd5b6100556004803603610050919081019061048d565b610087565b005b610071600480360361006c9190810190610464565b610215565b60405161007e9190610571565b60405180910390f35b61008f6102fb565b6040518060a001604052808673ffffffffffffffffffffffffffffffffffffffff1681526020018581526020018481526020018381526020013373ffffffffffffffffffffffffffffffffffffffff168152509050806000808773ffffffffffffffffffffffffffffffffffffffff1673ffffffffffffffffffffffffffffffffffffffff16815260200190815260200160002060000160008201518160000160006101000a81548173ffffffffffffffffffffffffffffffffffffffff021916908373ffffffffffffffffffffffffffffffffffffffff1602179055506020820151816001019080519060200190610189929190610356565b5060408201518160020190805190602001906101a6929190610356565b5060608201518160030190805190602001906101c3929190610356565b5060808201518160040160006101000a81548173ffffffffffffffffffffffffffffffffffffffff021916908373ffffffffffffffffffffffffffffffffffffffff1602179055509050505050505050565b60606000808373ffffffffffffffffffffffffffffffffffffffff1673ffffffffffffffffffffffffffffffffffffffff1681526020019081526020016000206000016002018054600181600116156101000203166002900480601f0160208091040260200160405190810160405280929190818152602001828054600181600116156101000203166002900480156102ef5780601f106102c4576101008083540402835291602001916102ef565b820191906000526020600020905b8154815290600101906020018083116102d257829003601f168201915b50505050509050919050565b6040518060a00160405280600073ffffffffffffffffffffffffffffffffffffffff168152602001606081526020016060815260200160608152602001600073ffffffffffffffffffffffffffffffffffffffff1681525090565b828054600181600116156101000203166002900490600052602060002090601f016020900481019282601f1061039757805160ff19168380011785556103c5565b828001600101855582156103c5579182015b828111156103c45782518255916020019190600101906103a9565b5b5090506103d291906103d6565b5090565b6103f891905b808211156103f45760008160009055506001016103dc565b5090565b90565b60008135905061040a8161068d565b92915050565b600082601f83011261042157600080fd5b813561043461042f826105c0565b610593565b9150808252602083016020830185838301111561045057600080fd5b61045b83828461063a565b50505092915050565b60006020828403121561047657600080fd5b6000610484848285016103fb565b91505092915050565b600080600080608085870312156104a357600080fd5b60006104b1878288016103fb565b945050602085013567ffffffffffffffff8111156104ce57600080fd5b6104da87828801610410565b935050604085013567ffffffffffffffff8111156104f757600080fd5b61050387828801610410565b925050606085013567ffffffffffffffff81111561052057600080fd5b61052c87828801610410565b91505092959194509250565b6000610543826105ec565b61054d81856105f7565b935061055d818560208601610649565b6105668161067c565b840191505092915050565b6000602082019050818103600083015261058b8184610538565b905092915050565b6000604051905081810181811067ffffffffffffffff821117156105b657600080fd5b8060405250919050565b600067ffffffffffffffff8211156105d757600080fd5b601f19601f8301169050602081019050919050565b600081519050919050565b600082825260208201905092915050565b60006106138261061a565b9050919050565b600073ffffffffffffffffffffffffffffffffffffffff82169050919050565b82818337600083830152505050565b60005b8381101561066757808201518184015260208101905061064c565b83811115610676576000848401525b50505050565b6000601f19601f8301169050919050565b61069681610608565b81146106a157600080fd5b5056fea265627a7a72305820cfd7c1d546437d1ffdf736e19c7d43cd7b188ceaee256432fe73baaab2062c786c6578706572696d656e74616cf50037",
  "source": "pragma solidity >=0.4.22 <0.8.0;\r\npragma experimental ABIEncoderV2;\r\n\r\ncontract CartellaClinica {\r\n\r\n    mapping(address => CartellaClinica) cartelleCliniche;\r\n    string COD_TIPOP_PAZIENTE = \"PAZIENTE\";\r\n\r\n    struct User {\r\n        address idUser;\r\n        string userType;\r\n        string name;\r\n        string surname;\r\n        address owner;\r\n    }\r\n\r\n    struct Esame {\r\n        // string idEsame\r\n        address idOperatore;\r\n        string dataPrescrizioneEsame;\r\n        string oggetto;\r\n        string esito;\r\n        string stato;\r\n    }\r\n\r\n    struct CartellaClinica {\r\n        User paziente;\r\n        Esame[] esami;\r\n    }\r\n\r\n    function newCartellaClinica(address _idUser,\r\n        string memory _userType,\r\n        string memory _name,\r\n        string memory _surname) public {\r\n\r\n        User memory utente = User (_idUser, \r\n            _userType, \r\n            _name,\r\n            _surname, \r\n            msg.sender);\r\n\r\n        cartelleCliniche[_idUser].paziente = utente; \r\n    }\r\n\r\n    function getCartellaClinica(address _idUser) public view returns (string memory) {\r\n        return cartelleCliniche[_idUser].paziente.name;\r\n    }\r\n\r\n}",
  "sourcePath": "E:\\Progetti\\Blockchain\\HealtyChian\\contracts\\CartellaClinica.sol",
  "compiler": {
    "name": "solc",
    "version": "0.5.8+commit.23d335f2.Emscripten.clang"
  },
  "schemaVersion": "3.4.4",
  "updatedAt": "2022-02-19T09:41:44.099Z",
  "networkType": "ethereum",
  "devdoc": {
    "methods": {}
  },
  "userdoc": {
    "methods": {}
  }
}