{
  "contractName": "Freedom",
  "abi": [
    {
      "inputs": [],
      "stateMutability": "payable",
      "type": "constructor",
      "payable": true
    },
    {
      "anonymous": false,
      "inputs": [
        {
          "indexed": true,
          "internalType": "address",
          "name": "owner",
          "type": "address"
        },
        {
          "indexed": true,
          "internalType": "address",
          "name": "approved",
          "type": "address"
        },
        {
          "indexed": true,
          "internalType": "uint256",
          "name": "tokenId",
          "type": "uint256"
        }
      ],
      "name": "Approval",
      "type": "event"
    },
    {
      "anonymous": false,
      "inputs": [
        {
          "indexed": true,
          "internalType": "address",
          "name": "owner",
          "type": "address"
        },
        {
          "indexed": true,
          "internalType": "address",
          "name": "operator",
          "type": "address"
        },
        {
          "indexed": false,
          "internalType": "bool",
          "name": "approved",
          "type": "bool"
        }
      ],
      "name": "ApprovalForAll",
      "type": "event"
    },
    {
      "anonymous": false,
      "inputs": [
        {
          "indexed": true,
          "internalType": "address",
          "name": "from",
          "type": "address"
        },
        {
          "indexed": true,
          "internalType": "address",
          "name": "to",
          "type": "address"
        },
        {
          "indexed": true,
          "internalType": "uint256",
          "name": "tokenId",
          "type": "uint256"
        }
      ],
      "name": "Transfer",
      "type": "event"
    },
    {
      "stateMutability": "payable",
      "type": "fallback",
      "payable": true
    },
    {
      "inputs": [
        {
          "internalType": "address",
          "name": "to",
          "type": "address"
        },
        {
          "internalType": "uint256",
          "name": "tokenId",
          "type": "uint256"
        }
      ],
      "name": "approve",
      "outputs": [],
      "stateMutability": "nonpayable",
      "type": "function"
    },
    {
      "inputs": [
        {
          "internalType": "address",
          "name": "owner",
          "type": "address"
        }
      ],
      "name": "balanceOf",
      "outputs": [
        {
          "internalType": "uint256",
          "name": "",
          "type": "uint256"
        }
      ],
      "stateMutability": "view",
      "type": "function",
      "constant": true
    },
    {
      "inputs": [
        {
          "internalType": "uint256",
          "name": "",
          "type": "uint256"
        }
      ],
      "name": "classifica",
      "outputs": [
        {
          "internalType": "uint256",
          "name": "tokenId",
          "type": "uint256"
        },
        {
          "internalType": "uint256",
          "name": "listens",
          "type": "uint256"
        }
      ],
      "stateMutability": "view",
      "type": "function",
      "constant": true
    },
    {
      "inputs": [],
      "name": "counterCanzoni",
      "outputs": [
        {
          "internalType": "uint256",
          "name": "",
          "type": "uint256"
        }
      ],
      "stateMutability": "view",
      "type": "function",
      "constant": true
    },
    {
      "inputs": [
        {
          "internalType": "uint256",
          "name": "tokenId",
          "type": "uint256"
        }
      ],
      "name": "getApproved",
      "outputs": [
        {
          "internalType": "address",
          "name": "",
          "type": "address"
        }
      ],
      "stateMutability": "view",
      "type": "function",
      "constant": true
    },
    {
      "inputs": [
        {
          "internalType": "address",
          "name": "owner",
          "type": "address"
        },
        {
          "internalType": "address",
          "name": "operator",
          "type": "address"
        }
      ],
      "name": "isApprovedForAll",
      "outputs": [
        {
          "internalType": "bool",
          "name": "",
          "type": "bool"
        }
      ],
      "stateMutability": "view",
      "type": "function",
      "constant": true
    },
    {
      "inputs": [],
      "name": "name",
      "outputs": [
        {
          "internalType": "string",
          "name": "",
          "type": "string"
        }
      ],
      "stateMutability": "view",
      "type": "function",
      "constant": true
    },
    {
      "inputs": [
        {
          "internalType": "uint256",
          "name": "tokenId",
          "type": "uint256"
        }
      ],
      "name": "ownerOf",
      "outputs": [
        {
          "internalType": "address",
          "name": "",
          "type": "address"
        }
      ],
      "stateMutability": "view",
      "type": "function",
      "constant": true
    },
    {
      "inputs": [
        {
          "internalType": "address",
          "name": "from",
          "type": "address"
        },
        {
          "internalType": "address",
          "name": "to",
          "type": "address"
        },
        {
          "internalType": "uint256",
          "name": "tokenId",
          "type": "uint256"
        }
      ],
      "name": "safeTransferFrom",
      "outputs": [],
      "stateMutability": "nonpayable",
      "type": "function"
    },
    {
      "inputs": [
        {
          "internalType": "address",
          "name": "from",
          "type": "address"
        },
        {
          "internalType": "address",
          "name": "to",
          "type": "address"
        },
        {
          "internalType": "uint256",
          "name": "tokenId",
          "type": "uint256"
        },
        {
          "internalType": "bytes",
          "name": "_data",
          "type": "bytes"
        }
      ],
      "name": "safeTransferFrom",
      "outputs": [],
      "stateMutability": "nonpayable",
      "type": "function"
    },
    {
      "inputs": [
        {
          "internalType": "address",
          "name": "operator",
          "type": "address"
        },
        {
          "internalType": "bool",
          "name": "approved",
          "type": "bool"
        }
      ],
      "name": "setApprovalForAll",
      "outputs": [],
      "stateMutability": "nonpayable",
      "type": "function"
    },
    {
      "inputs": [
        {
          "internalType": "uint256",
          "name": "",
          "type": "uint256"
        }
      ],
      "name": "sortedClassifica",
      "outputs": [
        {
          "internalType": "uint256",
          "name": "tokenId",
          "type": "uint256"
        },
        {
          "internalType": "uint256",
          "name": "listens",
          "type": "uint256"
        }
      ],
      "stateMutability": "view",
      "type": "function",
      "constant": true
    },
    {
      "inputs": [
        {
          "internalType": "bytes4",
          "name": "interfaceId",
          "type": "bytes4"
        }
      ],
      "name": "supportsInterface",
      "outputs": [
        {
          "internalType": "bool",
          "name": "",
          "type": "bool"
        }
      ],
      "stateMutability": "view",
      "type": "function",
      "constant": true
    },
    {
      "inputs": [],
      "name": "symbol",
      "outputs": [
        {
          "internalType": "string",
          "name": "",
          "type": "string"
        }
      ],
      "stateMutability": "view",
      "type": "function",
      "constant": true
    },
    {
      "inputs": [
        {
          "internalType": "uint256",
          "name": "tokenId",
          "type": "uint256"
        }
      ],
      "name": "tokenURI",
      "outputs": [
        {
          "internalType": "string",
          "name": "",
          "type": "string"
        }
      ],
      "stateMutability": "view",
      "type": "function",
      "constant": true
    },
    {
      "inputs": [
        {
          "internalType": "address",
          "name": "from",
          "type": "address"
        },
        {
          "internalType": "address",
          "name": "to",
          "type": "address"
        },
        {
          "internalType": "uint256",
          "name": "tokenId",
          "type": "uint256"
        }
      ],
      "name": "transferFrom",
      "outputs": [],
      "stateMutability": "nonpayable",
      "type": "function"
    },
    {
      "stateMutability": "payable",
      "type": "receive",
      "payable": true
    },
    {
      "inputs": [
        {
          "internalType": "string",
          "name": "_tokenURI",
          "type": "string"
        }
      ],
      "name": "addCanzone",
      "outputs": [
        {
          "internalType": "uint256",
          "name": "",
          "type": "uint256"
        }
      ],
      "stateMutability": "nonpayable",
      "type": "function"
    },
    {
      "inputs": [
        {
          "internalType": "uint256",
          "name": "tokenId",
          "type": "uint256"
        }
      ],
      "name": "exists",
      "outputs": [
        {
          "internalType": "bool",
          "name": "",
          "type": "bool"
        }
      ],
      "stateMutability": "view",
      "type": "function",
      "constant": true
    },
    {
      "inputs": [],
      "name": "getLastTokenId",
      "outputs": [
        {
          "internalType": "uint256",
          "name": "",
          "type": "uint256"
        }
      ],
      "stateMutability": "view",
      "type": "function",
      "constant": true
    },
    {
      "inputs": [],
      "name": "isPiattaforma",
      "outputs": [
        {
          "internalType": "bool",
          "name": "",
          "type": "bool"
        }
      ],
      "stateMutability": "view",
      "type": "function",
      "constant": true
    },
    {
      "inputs": [],
      "name": "getPropriBrani",
      "outputs": [
        {
          "internalType": "uint256[]",
          "name": "",
          "type": "uint256[]"
        }
      ],
      "stateMutability": "view",
      "type": "function",
      "constant": true
    },
    {
      "inputs": [
        {
          "internalType": "uint256",
          "name": "tokenId",
          "type": "uint256"
        }
      ],
      "name": "getAscolti",
      "outputs": [
        {
          "internalType": "uint256",
          "name": "",
          "type": "uint256"
        }
      ],
      "stateMutability": "view",
      "type": "function",
      "constant": true
    },
    {
      "inputs": [],
      "name": "depositaEthAddBrano",
      "outputs": [
        {
          "internalType": "bool",
          "name": "",
          "type": "bool"
        }
      ],
      "stateMutability": "payable",
      "type": "function",
      "payable": true
    },
    {
      "inputs": [
        {
          "internalType": "uint256",
          "name": "id",
          "type": "uint256"
        }
      ],
      "name": "addAscolti",
      "outputs": [
        {
          "internalType": "bool",
          "name": "",
          "type": "bool"
        }
      ],
      "stateMutability": "nonpayable",
      "type": "function"
    },
    {
      "inputs": [],
      "name": "depositaEthaddAscolti",
      "outputs": [
        {
          "internalType": "bool",
          "name": "",
          "type": "bool"
        }
      ],
      "stateMutability": "payable",
      "type": "function",
      "payable": true
    },
    {
      "inputs": [],
      "name": "pagamentoClassifica",
      "outputs": [
        {
          "internalType": "bool",
          "name": "",
          "type": "bool"
        }
      ],
      "stateMutability": "payable",
      "type": "function",
      "payable": true
    },
    {
      "inputs": [
        {
          "internalType": "address payable",
          "name": "_to",
          "type": "address"
        },
        {
          "internalType": "uint256",
          "name": "amount",
          "type": "uint256"
        }
      ],
      "name": "inviaEther",
      "outputs": [
        {
          "internalType": "bool",
          "name": "",
          "type": "bool"
        }
      ],
      "stateMutability": "payable",
      "type": "function",
      "payable": true
    },
    {
      "inputs": [],
      "name": "ritiraEther",
      "outputs": [
        {
          "internalType": "bool",
          "name": "",
          "type": "bool"
        }
      ],
      "stateMutability": "payable",
      "type": "function",
      "payable": true
    },
    {
      "inputs": [],
      "name": "checkDisponibilita",
      "outputs": [
        {
          "internalType": "bool",
          "name": "",
          "type": "bool"
        }
      ],
      "stateMutability": "payable",
      "type": "function",
      "payable": true
    },
    {
      "inputs": [],
      "name": "getBalanceAnnuale",
      "outputs": [
        {
          "internalType": "uint256",
          "name": "",
          "type": "uint256"
        }
      ],
      "stateMutability": "view",
      "type": "function",
      "constant": true
    }
  ],
  "bytecode": "0x60806040526040518060400160405280600781526020017f46726565646f6d000000000000000000000000000000000000000000000000008152506040518060400160405280600481526020017f46524545000000000000000000000000000000000000000000000000000000008152508160009080519060200190620000889291906200017d565b508060019080519060200190620000a19291906200017d565b50505033600960006101000a81548173ffffffffffffffffffffffffffffffffffffffff021916908373ffffffffffffffffffffffffffffffffffffffff1602179055506301e1338042620000f7919062000266565b6008819055506000600a81905550600073f2e34e46337248fecd2eaa83783ed0b8a450dd1590506001600b60008373ffffffffffffffffffffffffffffffffffffffff1673ffffffffffffffffffffffffffffffffffffffff16815260200190815260200160002060006101000a81548160ff0219169083151502179055505062000328565b8280546200018b90620002f2565b90600052602060002090601f016020900481019282620001af5760008555620001fb565b82601f10620001ca57805160ff1916838001178555620001fb565b82800160010185558215620001fb579182015b82811115620001fa578251825591602001919060010190620001dd565b5b5090506200020a91906200020e565b5090565b5b80821115620002295760008160009055506001016200020f565b5090565b6000819050919050565b7f4e487b7100000000000000000000000000000000000000000000000000000000600052601160045260246000fd5b600062000273826200022d565b915062000280836200022d565b9250827fffffffffffffffffffffffffffffffffffffffffffffffffffffffffffffffff03821115620002b857620002b762000237565b5b828201905092915050565b7f4e487b7100000000000000000000000000000000000000000000000000000000600052602260045260246000fd5b600060028204905060018216806200030b57607f821691505b60208210811415620003225762000321620002c3565b5b50919050565b6143bf80620003386000396000f3fe6080604052600436106101d15760003560e01c806370a08231116100f7578063a22cb46511610095578063c87b56dd11610064578063c87b56dd146106a2578063d1250102146106df578063e2caa0de146106fd578063e985e9c51461073b576101d8565b8063a22cb46514610607578063a509bde714610630578063b88d4fde1461065b578063c3bacc6614610684576101d8565b8063876a41d5116100d1578063876a41d514610568578063899cbd431461059357806395d89b41146105be578063a03075ef146105e9576101d8565b806370a08231146104c357806381f345f81461050057806383c4c00d1461053d576101d8565b806321f6324f1161016f5780634477bdb71161013e5780634477bdb7146103ee5780634f558e791461042b578063630c1521146104685780636352211e14610486576101d8565b806321f6324f1461032e57806323b872dd1461035e5780633db32bb11461038757806342842e0e146103c5576101d8565b8063081812fc116101ab578063081812fc1461026d578063095ea7b3146102aa5780630c0f365a146102d357806318ecd9cc146102f1576101d8565b806301ffc9a7146101da57806304c7d1791461021757806306fdde0314610242576101d8565b366101d857005b005b3480156101e657600080fd5b5061020160048036038101906101fc9190612bcc565b610778565b60405161020e9190612c14565b60405180910390f35b34801561022357600080fd5b5061022c61085a565b6040516102399190612c48565b60405180910390f35b34801561024e57600080fd5b50610257610864565b6040516102649190612cfc565b60405180910390f35b34801561027957600080fd5b50610294600480360381019061028f9190612d4a565b6108f6565b6040516102a19190612db8565b60405180910390f35b3480156102b657600080fd5b506102d160048036038101906102cc9190612dff565b61097b565b005b6102db610a93565b6040516102e89190612c14565b60405180910390f35b3480156102fd57600080fd5b5061031860048036038101906103139190612ea4565b610b69565b6040516103259190612c48565b60405180910390f35b61034860048036038101906103439190612f2f565b610e10565b6040516103559190612c14565b60405180910390f35b34801561036a57600080fd5b5061038560048036038101906103809190612f6f565b610ec7565b005b34801561039357600080fd5b506103ae60048036038101906103a99190612d4a565b610f27565b6040516103bc929190612fc2565b60405180910390f35b3480156103d157600080fd5b506103ec60048036038101906103e79190612f6f565b610f5b565b005b3480156103fa57600080fd5b5061041560048036038101906104109190612d4a565b610f7b565b6040516104229190612c48565b60405180910390f35b34801561043757600080fd5b50610452600480360381019061044d9190612d4a565b610f98565b60405161045f9190612c14565b60405180910390f35b610470610faa565b60405161047d9190612c14565b60405180910390f35b34801561049257600080fd5b506104ad60048036038101906104a89190612d4a565b6110a3565b6040516104ba9190612db8565b60405180910390f35b3480156104cf57600080fd5b506104ea60048036038101906104e59190612feb565b611155565b6040516104f79190612c48565b60405180910390f35b34801561050c57600080fd5b5061052760048036038101906105229190612d4a565b61120d565b6040516105349190612c14565b60405180910390f35b34801561054957600080fd5b5061055261135a565b60405161055f9190612c48565b60405180910390f35b34801561057457600080fd5b5061057d611364565b60405161058a91906130d6565b60405180910390f35b34801561059f57600080fd5b506105a86113f9565b6040516105b59190612c48565b60405180910390f35b3480156105ca57600080fd5b506105d36113ff565b6040516105e09190612cfc565b60405180910390f35b6105f1611491565b6040516105fe9190612c14565b60405180910390f35b34801561061357600080fd5b5061062e60048036038101906106299190613124565b6114c2565b005b34801561063c57600080fd5b506106456114d8565b6040516106529190612c14565b60405180910390f35b34801561066757600080fd5b50610682600480360381019061067d9190613294565b611544565b005b61068c6115a6565b6040516106999190612c14565b60405180910390f35b3480156106ae57600080fd5b506106c960048036038101906106c49190612d4a565b6116ab565b6040516106d69190612cfc565b60405180910390f35b6106e76117fd565b6040516106f49190612c14565b60405180910390f35b34801561070957600080fd5b50610724600480360381019061071f9190612d4a565b611a2e565b604051610732929190612fc2565b60405180910390f35b34801561074757600080fd5b50610762600480360381019061075d9190613317565b611a62565b60405161076f9190612c14565b60405180910390f35b60007f80ac58cd000000000000000000000000000000000000000000000000000000007bffffffffffffffffffffffffffffffffffffffffffffffffffffffff1916827bffffffffffffffffffffffffffffffffffffffffffffffffffffffff1916148061084357507f5b5e139f000000000000000000000000000000000000000000000000000000007bffffffffffffffffffffffffffffffffffffffffffffffffffffffff1916827bffffffffffffffffffffffffffffffffffffffffffffffffffffffff1916145b80610853575061085282611af6565b5b9050919050565b6000600a54905090565b60606000805461087390613386565b80601f016020809104026020016040519081016040528092919081815260200182805461089f90613386565b80156108ec5780601f106108c1576101008083540402835291602001916108ec565b820191906000526020600020905b8154815290600101906020018083116108cf57829003601f168201915b5050505050905090565b600061090182611b60565b610940576040517f08c379a00000000000000000000000000000000000000000000000000000000081526004016109379061342a565b60405180910390fd5b6004600083815260200190815260200160002060009054906101000a900473ffffffffffffffffffffffffffffffffffffffff169050919050565b6000610986826110a3565b90508073ffffffffffffffffffffffffffffffffffffffff168373ffffffffffffffffffffffffffffffffffffffff1614156109f7576040517f08c379a00000000000000000000000000000000000000000000000000000000081526004016109ee906134bc565b60405180910390fd5b8073ffffffffffffffffffffffffffffffffffffffff16610a16611bcc565b73ffffffffffffffffffffffffffffffffffffffff161480610a455750610a4481610a3f611bcc565b611a62565b5b610a84576040517f08c379a0000000000000000000000000000000000000000000000000000000008152600401610a7b9061354e565b60405180910390fd5b610a8e8383611bd4565b505050565b600080600960009054906101000a900473ffffffffffffffffffffffffffffffffffffffff1673ffffffffffffffffffffffffffffffffffffffff1647604051610adc9061359f565b60006040518083038185875af1925050503d8060008114610b19576040519150601f19603f3d011682016040523d82523d6000602084013e610b1e565b606091505b5050905080610b62576040517f08c379a0000000000000000000000000000000000000000000000000000000008152600401610b5990613600565b60405180910390fd5b8091505090565b60008073ffffffffffffffffffffffffffffffffffffffff163373ffffffffffffffffffffffffffffffffffffffff161415610bda576040517f08c379a0000000000000000000000000000000000000000000000000000000008152600401610bd19061366c565b60405180910390fd5b600d8383604051610bec9291906136bc565b908152602001604051809103902060009054906101000a900460ff1615610c48576040517f08c379a0000000000000000000000000000000000000000000000000000000008152600401610c3f90613721565b60405180910390fd5b6000671bc16d674ec800009050803373ffffffffffffffffffffffffffffffffffffffff16311015610c7957600080fd5b60076000815480929190610c8c90613770565b919050555060006007549050610ca23382611c8d565b610cf08186868080601f016020809104026020016040519081016040528093929190818152602001838380828437600081840152601f19601f82011690508083019250505050505050611cab565b6001600d8686604051610d049291906136bc565b908152602001604051809103902060006101000a81548160ff021916908315150217905550600c60003373ffffffffffffffffffffffffffffffffffffffff1673ffffffffffffffffffffffffffffffffffffffff168152602001908152602001600020819080600181540180825580915050600190039060005260206000200160009091909190915055600060405180604001604052808381526020016000815250905060108190806001815401808255809150506001900390600052602060002090600202016000909190919091506000820151816000015560208201518160010155505082600a6000828254610dfd91906137b9565b9250508190555081935050505092915050565b6000808373ffffffffffffffffffffffffffffffffffffffff1683604051610e379061359f565b60006040518083038185875af1925050503d8060008114610e74576040519150601f19603f3d011682016040523d82523d6000602084013e610e79565b606091505b5050905080610ebd576040517f08c379a0000000000000000000000000000000000000000000000000000000008152600401610eb49061385b565b60405180910390fd5b8091505092915050565b610ed8610ed2611bcc565b82611d1f565b610f17576040517f08c379a0000000000000000000000000000000000000000000000000000000008152600401610f0e906138ed565b60405180910390fd5b610f22838383611dfd565b505050565b60108181548110610f3757600080fd5b90600052602060002090600202016000915090508060000154908060010154905082565b610f7683838360405180602001604052806000815250611544565b505050565b6000600e6000838152602001908152602001600020549050919050565b6000610fa382611b60565b9050919050565b60006007341415610ff0576040517f08c379a0000000000000000000000000000000000000000000000000000000008152600401610fe7906139a5565b60405180910390fd5b60003073ffffffffffffffffffffffffffffffffffffffff16346040516110169061359f565b60006040518083038185875af1925050503d8060008114611053576040519150601f19603f3d011682016040523d82523d6000602084013e611058565b606091505b505090508061109c576040517f08c379a00000000000000000000000000000000000000000000000000000000081526004016110939061385b565b60405180910390fd5b8091505090565b6000806002600084815260200190815260200160002060009054906101000a900473ffffffffffffffffffffffffffffffffffffffff169050600073ffffffffffffffffffffffffffffffffffffffff168173ffffffffffffffffffffffffffffffffffffffff16141561114c576040517f08c379a000000000000000000000000000000000000000000000000000000000815260040161114390613a37565b60405180910390fd5b80915050919050565b60008073ffffffffffffffffffffffffffffffffffffffff168273ffffffffffffffffffffffffffffffffffffffff1614156111c6576040517f08c379a00000000000000000000000000000000000000000000000000000000081526004016111bd90613ac9565b60405180910390fd5b600360008373ffffffffffffffffffffffffffffffffffffffff1673ffffffffffffffffffffffffffffffffffffffff168152602001908152602001600020549050919050565b6000806002905061121c6114d8565b1561122657600190505b803373ffffffffffffffffffffffffffffffffffffffff16311015611280576040517f08c379a000000000000000000000000000000000000000000000000000000000815260040161127790613b35565b60405180910390fd5b80600a600082825461129291906137b9565b925050819055506001600e600085815260200190815260200160002060008282546112bd91906137b9565b9250508190555060005b60075481101561134f5783601082815481106112e6576112e5613b55565b5b906000526020600020906002020160000154141561133c5760016010828154811061131457611313613b55565b5b9060005260206000209060020201600101600082825461133491906137b9565b925050819055505b808061134790613770565b9150506112c7565b506001915050919050565b6000600754905090565b6060600c60003373ffffffffffffffffffffffffffffffffffffffff1673ffffffffffffffffffffffffffffffffffffffff1681526020019081526020016000208054806020026020016040519081016040528092919081815260200182805480156113ef57602002820191906000526020600020905b8154815260200190600101908083116113db575b5050505050905090565b60075481565b60606001805461140e90613386565b80601f016020809104026020016040519081016040528092919081815260200182805461143a90613386565b80156114875780601f1061145c57610100808354040283529160200191611487565b820191906000526020600020905b81548152906001019060200180831161146a57829003601f168201915b5050505050905090565b60003373ffffffffffffffffffffffffffffffffffffffff163134116114ba57600190506114bf565b600090505b90565b6114d46114cd611bcc565b8383612064565b5050565b600060011515600b60003373ffffffffffffffffffffffffffffffffffffffff1673ffffffffffffffffffffffffffffffffffffffff16815260200190815260200160002060009054906101000a900460ff161515141561153c5760019050611541565b600090505b90565b61155561154f611bcc565b83611d1f565b611594576040517f08c379a000000000000000000000000000000000000000000000000000000000815260040161158b906138ed565b60405180910390fd5b6115a0848484846121d1565b50505050565b60006002341415806115b9575060013414155b6115f8576040517f08c379a00000000000000000000000000000000000000000000000000000000081526004016115ef906139a5565b60405180910390fd5b60003073ffffffffffffffffffffffffffffffffffffffff163460405161161e9061359f565b60006040518083038185875af1925050503d806000811461165b576040519150601f19603f3d011682016040523d82523d6000602084013e611660565b606091505b50509050806116a4576040517f08c379a000000000000000000000000000000000000000000000000000000000815260040161169b9061385b565b60405180910390fd5b8091505090565b60606116b682611b60565b6116f5576040517f08c379a00000000000000000000000000000000000000000000000000000000081526004016116ec90613bf6565b60405180910390fd5b600060066000848152602001908152602001600020805461171590613386565b80601f016020809104026020016040519081016040528092919081815260200182805461174190613386565b801561178e5780601f106117635761010080835404028352916020019161178e565b820191906000526020600020905b81548152906001019060200180831161177157829003601f168201915b50505050509050600061179f61222d565b90506000815114156117b55781925050506117f8565b6000825111156117ea5780826040516020016117d2929190613c47565b604051602081830303815290604052925050506117f8565b6117f384612244565b925050505b919050565b6000600960009054906101000a900473ffffffffffffffffffffffffffffffffffffffff1673ffffffffffffffffffffffffffffffffffffffff163373ffffffffffffffffffffffffffffffffffffffff161461188f576040517f08c379a000000000000000000000000000000000000000000000000000000000815260040161188690613cb7565b60405180910390fd5b6118976122eb565b600060646014600a546118aa9190613cd7565b6118b49190613d60565b905060006064601e600a546118c99190613cd7565b6118d39190613d60565b905060005b600754811015611a06576000600754836118f29190613d60565b9050600a82101561191857600a8461190a9190613d60565b8161191591906137b9565b90505b60006119486010848154811061193157611930613b55565b5b9060005260206000209060020201600001546110a3565b73ffffffffffffffffffffffffffffffffffffffff168260405161196b9061359f565b60006040518083038185875af1925050503d80600081146119a8576040519150601f19603f3d011682016040523d82523d6000602084013e6119ad565b606091505b50509050806119f1576040517f08c379a00000000000000000000000000000000000000000000000000000000081526004016119e89061385b565b60405180910390fd5b505080806119fe90613770565b9150506118d8565b506000600a819055506301e1338042611a1f91906137b9565b60088190555060019250505090565b60118181548110611a3e57600080fd5b90600052602060002090600202016000915090508060000154908060010154905082565b6000600560008473ffffffffffffffffffffffffffffffffffffffff1673ffffffffffffffffffffffffffffffffffffffff16815260200190815260200160002060008373ffffffffffffffffffffffffffffffffffffffff1673ffffffffffffffffffffffffffffffffffffffff16815260200190815260200160002060009054906101000a900460ff16905092915050565b60007f01ffc9a7000000000000000000000000000000000000000000000000000000007bffffffffffffffffffffffffffffffffffffffffffffffffffffffff1916827bffffffffffffffffffffffffffffffffffffffffffffffffffffffff1916149050919050565b60008073ffffffffffffffffffffffffffffffffffffffff166002600084815260200190815260200160002060009054906101000a900473ffffffffffffffffffffffffffffffffffffffff1673ffffffffffffffffffffffffffffffffffffffff1614159050919050565b600033905090565b816004600083815260200190815260200160002060006101000a81548173ffffffffffffffffffffffffffffffffffffffff021916908373ffffffffffffffffffffffffffffffffffffffff160217905550808273ffffffffffffffffffffffffffffffffffffffff16611c47836110a3565b73ffffffffffffffffffffffffffffffffffffffff167f8c5be1e5ebec7d5bd14f71427d1e84f3dd0314c0f7b2291e5b200ac8c7c3b92560405160405180910390a45050565b611ca7828260405180602001604052806000815250612572565b5050565b611cb482611b60565b611cf3576040517f08c379a0000000000000000000000000000000000000000000000000000000008152600401611cea90613e03565b60405180910390fd5b80600660008481526020019081526020016000209080519060200190611d1a929190612abd565b505050565b6000611d2a82611b60565b611d69576040517f08c379a0000000000000000000000000000000000000000000000000000000008152600401611d6090613e95565b60405180910390fd5b6000611d74836110a3565b90508073ffffffffffffffffffffffffffffffffffffffff168473ffffffffffffffffffffffffffffffffffffffff161480611de357508373ffffffffffffffffffffffffffffffffffffffff16611dcb846108f6565b73ffffffffffffffffffffffffffffffffffffffff16145b80611df45750611df38185611a62565b5b91505092915050565b8273ffffffffffffffffffffffffffffffffffffffff16611e1d826110a3565b73ffffffffffffffffffffffffffffffffffffffff1614611e73576040517f08c379a0000000000000000000000000000000000000000000000000000000008152600401611e6a90613f27565b60405180910390fd5b600073ffffffffffffffffffffffffffffffffffffffff168273ffffffffffffffffffffffffffffffffffffffff161415611ee3576040517f08c379a0000000000000000000000000000000000000000000000000000000008152600401611eda90613fb9565b60405180910390fd5b611eee8383836125cd565b611ef9600082611bd4565b6001600360008573ffffffffffffffffffffffffffffffffffffffff1673ffffffffffffffffffffffffffffffffffffffff1681526020019081526020016000206000828254611f499190613fd9565b925050819055506001600360008473ffffffffffffffffffffffffffffffffffffffff1673ffffffffffffffffffffffffffffffffffffffff1681526020019081526020016000206000828254611fa091906137b9565b92505081905550816002600083815260200190815260200160002060006101000a81548173ffffffffffffffffffffffffffffffffffffffff021916908373ffffffffffffffffffffffffffffffffffffffff160217905550808273ffffffffffffffffffffffffffffffffffffffff168473ffffffffffffffffffffffffffffffffffffffff167fddf252ad1be2c89b69c2b068fc378daa952ba7f163c4a11628f55a4df523b3ef60405160405180910390a461205f8383836125d2565b505050565b8173ffffffffffffffffffffffffffffffffffffffff168373ffffffffffffffffffffffffffffffffffffffff1614156120d3576040517f08c379a00000000000000000000000000000000000000000000000000000000081526004016120ca90614059565b60405180910390fd5b80600560008573ffffffffffffffffffffffffffffffffffffffff1673ffffffffffffffffffffffffffffffffffffffff16815260200190815260200160002060008473ffffffffffffffffffffffffffffffffffffffff1673ffffffffffffffffffffffffffffffffffffffff16815260200190815260200160002060006101000a81548160ff0219169083151502179055508173ffffffffffffffffffffffffffffffffffffffff168373ffffffffffffffffffffffffffffffffffffffff167f17307eab39ab6107e8899845ad3d59bd9653f200f220920489ca2b5937696c31836040516121c49190612c14565b60405180910390a3505050565b6121dc848484611dfd565b6121e8848484846125d7565b612227576040517f08c379a000000000000000000000000000000000000000000000000000000000815260040161221e906140eb565b60405180910390fd5b50505050565b606060405180602001604052806000815250905090565b606061224f82611b60565b61228e576040517f08c379a00000000000000000000000000000000000000000000000000000000081526004016122859061417d565b60405180910390fd5b600061229861222d565b905060008151116122b857604051806020016040528060008152506122e3565b806122c28461275f565b6040516020016122d3929190613c47565b6040516020818303038152906040525b915050919050565b60005b60108054905081101561243c576000600f60008381526020019081526020016000208190555060005b818110156123e7576010818154811061233357612332613b55565b5b9060005260206000209060020201600101546010838154811061235957612358613b55565b5b90600052602060002090600202016001015411156123d457600f600082815260200190815260200160002054600f6000848152602001908152602001600020819055506001600f6000838152602001908152602001600020546123bc91906137b9565b600f6000838152602001908152602001600020819055505b80806123df90613770565b915050612317565b506000600f60008381526020019081526020016000205414156124295760018161241191906137b9565b600f6000838152602001908152602001600020819055505b808061243490613770565b9150506122ee565b506000601180549050905060005b6010805490508110156124d05781811015612464576124bd565b601160405180604001604052806000815260200160008152509080600181540180825580915050600190039060005260206000209060020201600090919091909150600082015181600001556020820151816001015550505b80806124c890613770565b91505061244a565b5060005b60108054905081101561256e57601081815481106124f5576124f4613b55565b5b906000526020600020906002020160116001600f6000858152602001908152602001600020546125259190613fd9565b8154811061253657612535613b55565b5b90600052602060002090600202016000820154816000015560018201548160010155905050808061256690613770565b9150506124d4565b5050565b61257c83836128c0565b61258960008484846125d7565b6125c8576040517f08c379a00000000000000000000000000000000000000000000000000000000081526004016125bf906140eb565b60405180910390fd5b505050565b505050565b505050565b60006125f88473ffffffffffffffffffffffffffffffffffffffff16612a9a565b15612752578373ffffffffffffffffffffffffffffffffffffffff1663150b7a02612621611bcc565b8786866040518563ffffffff1660e01b815260040161264394939291906141f2565b6020604051808303816000875af192505050801561267f57506040513d601f19601f8201168201806040525081019061267c9190614253565b60015b612702573d80600081146126af576040519150601f19603f3d011682016040523d82523d6000602084013e6126b4565b606091505b506000815114156126fa576040517f08c379a00000000000000000000000000000000000000000000000000000000081526004016126f1906140eb565b60405180910390fd5b805181602001fd5b63150b7a0260e01b7bffffffffffffffffffffffffffffffffffffffffffffffffffffffff1916817bffffffffffffffffffffffffffffffffffffffffffffffffffffffff191614915050612757565b600190505b949350505050565b606060008214156127a7576040518060400160405280600181526020017f300000000000000000000000000000000000000000000000000000000000000081525090506128bb565b600082905060005b600082146127d95780806127c290613770565b915050600a826127d29190613d60565b91506127af565b60008167ffffffffffffffff8111156127f5576127f4613169565b5b6040519080825280601f01601f1916602001820160405280156128275781602001600182028036833780820191505090505b5090505b600085146128b4576001826128409190613fd9565b9150600a8561284f9190614280565b603061285b91906137b9565b60f81b81838151811061287157612870613b55565b5b60200101907effffffffffffffffffffffffffffffffffffffffffffffffffffffffffffff1916908160001a905350600a856128ad9190613d60565b945061282b565b8093505050505b919050565b600073ffffffffffffffffffffffffffffffffffffffff168273ffffffffffffffffffffffffffffffffffffffff161415612930576040517f08c379a0000000000000000000000000000000000000000000000000000000008152600401612927906142fd565b60405180910390fd5b61293981611b60565b15612979576040517f08c379a000000000000000000000000000000000000000000000000000000000815260040161297090614369565b60405180910390fd5b612985600083836125cd565b6001600360008473ffffffffffffffffffffffffffffffffffffffff1673ffffffffffffffffffffffffffffffffffffffff16815260200190815260200160002060008282546129d591906137b9565b92505081905550816002600083815260200190815260200160002060006101000a81548173ffffffffffffffffffffffffffffffffffffffff021916908373ffffffffffffffffffffffffffffffffffffffff160217905550808273ffffffffffffffffffffffffffffffffffffffff16600073ffffffffffffffffffffffffffffffffffffffff167fddf252ad1be2c89b69c2b068fc378daa952ba7f163c4a11628f55a4df523b3ef60405160405180910390a4612a96600083836125d2565b5050565b6000808273ffffffffffffffffffffffffffffffffffffffff163b119050919050565b828054612ac990613386565b90600052602060002090601f016020900481019282612aeb5760008555612b32565b82601f10612b0457805160ff1916838001178555612b32565b82800160010185558215612b32579182015b82811115612b31578251825591602001919060010190612b16565b5b509050612b3f9190612b43565b5090565b5b80821115612b5c576000816000905550600101612b44565b5090565b6000604051905090565b600080fd5b600080fd5b60007fffffffff0000000000000000000000000000000000000000000000000000000082169050919050565b612ba981612b74565b8114612bb457600080fd5b50565b600081359050612bc681612ba0565b92915050565b600060208284031215612be257612be1612b6a565b5b6000612bf084828501612bb7565b91505092915050565b60008115159050919050565b612c0e81612bf9565b82525050565b6000602082019050612c296000830184612c05565b92915050565b6000819050919050565b612c4281612c2f565b82525050565b6000602082019050612c5d6000830184612c39565b92915050565b600081519050919050565b600082825260208201905092915050565b60005b83811015612c9d578082015181840152602081019050612c82565b83811115612cac576000848401525b50505050565b6000601f19601f8301169050919050565b6000612cce82612c63565b612cd88185612c6e565b9350612ce8818560208601612c7f565b612cf181612cb2565b840191505092915050565b60006020820190508181036000830152612d168184612cc3565b905092915050565b612d2781612c2f565b8114612d3257600080fd5b50565b600081359050612d4481612d1e565b92915050565b600060208284031215612d6057612d5f612b6a565b5b6000612d6e84828501612d35565b91505092915050565b600073ffffffffffffffffffffffffffffffffffffffff82169050919050565b6000612da282612d77565b9050919050565b612db281612d97565b82525050565b6000602082019050612dcd6000830184612da9565b92915050565b612ddc81612d97565b8114612de757600080fd5b50565b600081359050612df981612dd3565b92915050565b60008060408385031215612e1657612e15612b6a565b5b6000612e2485828601612dea565b9250506020612e3585828601612d35565b9150509250929050565b600080fd5b600080fd5b600080fd5b60008083601f840112612e6457612e63612e3f565b5b8235905067ffffffffffffffff811115612e8157612e80612e44565b5b602083019150836001820283011115612e9d57612e9c612e49565b5b9250929050565b60008060208385031215612ebb57612eba612b6a565b5b600083013567ffffffffffffffff811115612ed957612ed8612b6f565b5b612ee585828601612e4e565b92509250509250929050565b6000612efc82612d77565b9050919050565b612f0c81612ef1565b8114612f1757600080fd5b50565b600081359050612f2981612f03565b92915050565b60008060408385031215612f4657612f45612b6a565b5b6000612f5485828601612f1a565b9250506020612f6585828601612d35565b9150509250929050565b600080600060608486031215612f8857612f87612b6a565b5b6000612f9686828701612dea565b9350506020612fa786828701612dea565b9250506040612fb886828701612d35565b9150509250925092565b6000604082019050612fd76000830185612c39565b612fe46020830184612c39565b9392505050565b60006020828403121561300157613000612b6a565b5b600061300f84828501612dea565b91505092915050565b600081519050919050565b600082825260208201905092915050565b6000819050602082019050919050565b61304d81612c2f565b82525050565b600061305f8383613044565b60208301905092915050565b6000602082019050919050565b600061308382613018565b61308d8185613023565b935061309883613034565b8060005b838110156130c95781516130b08882613053565b97506130bb8361306b565b92505060018101905061309c565b5085935050505092915050565b600060208201905081810360008301526130f08184613078565b905092915050565b61310181612bf9565b811461310c57600080fd5b50565b60008135905061311e816130f8565b92915050565b6000806040838503121561313b5761313a612b6a565b5b600061314985828601612dea565b925050602061315a8582860161310f565b9150509250929050565b600080fd5b7f4e487b7100000000000000000000000000000000000000000000000000000000600052604160045260246000fd5b6131a182612cb2565b810181811067ffffffffffffffff821117156131c0576131bf613169565b5b80604052505050565b60006131d3612b60565b90506131df8282613198565b919050565b600067ffffffffffffffff8211156131ff576131fe613169565b5b61320882612cb2565b9050602081019050919050565b82818337600083830152505050565b6000613237613232846131e4565b6131c9565b90508281526020810184848401111561325357613252613164565b5b61325e848285613215565b509392505050565b600082601f83011261327b5761327a612e3f565b5b813561328b848260208601613224565b91505092915050565b600080600080608085870312156132ae576132ad612b6a565b5b60006132bc87828801612dea565b94505060206132cd87828801612dea565b93505060406132de87828801612d35565b925050606085013567ffffffffffffffff8111156132ff576132fe612b6f565b5b61330b87828801613266565b91505092959194509250565b6000806040838503121561332e5761332d612b6a565b5b600061333c85828601612dea565b925050602061334d85828601612dea565b9150509250929050565b7f4e487b7100000000000000000000000000000000000000000000000000000000600052602260045260246000fd5b6000600282049050600182168061339e57607f821691505b602082108114156133b2576133b1613357565b5b50919050565b7f4552433732313a20617070726f76656420717565727920666f72206e6f6e657860008201527f697374656e7420746f6b656e0000000000000000000000000000000000000000602082015250565b6000613414602c83612c6e565b915061341f826133b8565b604082019050919050565b6000602082019050818103600083015261344381613407565b9050919050565b7f4552433732313a20617070726f76616c20746f2063757272656e74206f776e6560008201527f7200000000000000000000000000000000000000000000000000000000000000602082015250565b60006134a6602183612c6e565b91506134b18261344a565b604082019050919050565b600060208201905081810360008301526134d581613499565b9050919050565b7f4552433732313a20617070726f76652063616c6c6572206973206e6f74206f7760008201527f6e6572206e6f7220617070726f76656420666f7220616c6c0000000000000000602082015250565b6000613538603883612c6e565b9150613543826134dc565b604082019050919050565b600060208201905081810360008301526135678161352b565b9050919050565b600081905092915050565b50565b600061358960008361356e565b915061359482613579565b600082019050919050565b60006135aa8261357c565b9150819050919050565b7f5472616e73666572204661696c65640000000000000000000000000000000000600082015250565b60006135ea600f83612c6e565b91506135f5826135b4565b602082019050919050565b60006020820190508181036000830152613619816135dd565b9050919050565b7f696e646972697a7a6f206e6f6e2076616c69646f000000000000000000000000600082015250565b6000613656601483612c6e565b915061366182613620565b602082019050919050565b6000602082019050818103600083015261368581613649565b9050919050565b600081905092915050565b60006136a3838561368c565b93506136b0838584613215565b82840190509392505050565b60006136c9828486613697565b91508190509392505050565b7f555249206573697374656e746500000000000000000000000000000000000000600082015250565b600061370b600d83612c6e565b9150613716826136d5565b602082019050919050565b6000602082019050818103600083015261373a816136fe565b9050919050565b7f4e487b7100000000000000000000000000000000000000000000000000000000600052601160045260246000fd5b600061377b82612c2f565b91507fffffffffffffffffffffffffffffffffffffffffffffffffffffffffffffffff8214156137ae576137ad613741565b5b600182019050919050565b60006137c482612c2f565b91506137cf83612c2f565b9250827fffffffffffffffffffffffffffffffffffffffffffffffffffffffffffffffff0382111561380457613803613741565b5b828201905092915050565b7f4661696c656420746f2073656e64204574686572000000000000000000000000600082015250565b6000613845601483612c6e565b91506138508261380f565b602082019050919050565b6000602082019050818103600083015261387481613838565b9050919050565b7f4552433732313a207472616e736665722063616c6c6572206973206e6f74206f60008201527f776e6572206e6f7220617070726f766564000000000000000000000000000000602082015250565b60006138d7603183612c6e565b91506138e28261387b565b604082019050919050565b60006020820190508181036000830152613906816138ca565b9050919050565b7f5369207374612063657263616e646f20646920747261736d657474657265207560008201527f6e61207175616e7469746120646920455448206469766572736120646120717560208201527f656c6c6120617474657361000000000000000000000000000000000000000000604082015250565b600061398f604b83612c6e565b915061399a8261390d565b606082019050919050565b600060208201905081810360008301526139be81613982565b9050919050565b7f4552433732313a206f776e657220717565727920666f72206e6f6e657869737460008201527f656e7420746f6b656e0000000000000000000000000000000000000000000000602082015250565b6000613a21602983612c6e565b9150613a2c826139c5565b604082019050919050565b60006020820190508181036000830152613a5081613a14565b9050919050565b7f4552433732313a2062616c616e636520717565727920666f7220746865207a6560008201527f726f206164647265737300000000000000000000000000000000000000000000602082015250565b6000613ab3602a83612c6e565b9150613abe82613a57565b604082019050919050565b60006020820190508181036000830152613ae281613aa6565b9050919050565b7f4e6f6e2068616920616262617374616e7a612045746865720000000000000000600082015250565b6000613b1f601883612c6e565b9150613b2a82613ae9565b602082019050919050565b60006020820190508181036000830152613b4e81613b12565b9050919050565b7f4e487b7100000000000000000000000000000000000000000000000000000000600052603260045260246000fd5b7f45524337323155524953746f726167653a2055524920717565727920666f722060008201527f6e6f6e6578697374656e7420746f6b656e000000000000000000000000000000602082015250565b6000613be0603183612c6e565b9150613beb82613b84565b604082019050919050565b60006020820190508181036000830152613c0f81613bd3565b9050919050565b6000613c2182612c63565b613c2b818561368c565b9350613c3b818560208601612c7f565b80840191505092915050565b6000613c538285613c16565b9150613c5f8284613c16565b91508190509392505050565b7f4e6f6e2073656920696c2070726f70726965746172696f000000000000000000600082015250565b6000613ca1601783612c6e565b9150613cac82613c6b565b602082019050919050565b60006020820190508181036000830152613cd081613c94565b9050919050565b6000613ce282612c2f565b9150613ced83612c2f565b9250817fffffffffffffffffffffffffffffffffffffffffffffffffffffffffffffffff0483118215151615613d2657613d25613741565b5b828202905092915050565b7f4e487b7100000000000000000000000000000000000000000000000000000000600052601260045260246000fd5b6000613d6b82612c2f565b9150613d7683612c2f565b925082613d8657613d85613d31565b5b828204905092915050565b7f45524337323155524953746f726167653a2055524920736574206f66206e6f6e60008201527f6578697374656e7420746f6b656e000000000000000000000000000000000000602082015250565b6000613ded602e83612c6e565b9150613df882613d91565b604082019050919050565b60006020820190508181036000830152613e1c81613de0565b9050919050565b7f4552433732313a206f70657261746f7220717565727920666f72206e6f6e657860008201527f697374656e7420746f6b656e0000000000000000000000000000000000000000602082015250565b6000613e7f602c83612c6e565b9150613e8a82613e23565b604082019050919050565b60006020820190508181036000830152613eae81613e72565b9050919050565b7f4552433732313a207472616e736665722066726f6d20696e636f72726563742060008201527f6f776e6572000000000000000000000000000000000000000000000000000000602082015250565b6000613f11602583612c6e565b9150613f1c82613eb5565b604082019050919050565b60006020820190508181036000830152613f4081613f04565b9050919050565b7f4552433732313a207472616e7366657220746f20746865207a65726f2061646460008201527f7265737300000000000000000000000000000000000000000000000000000000602082015250565b6000613fa3602483612c6e565b9150613fae82613f47565b604082019050919050565b60006020820190508181036000830152613fd281613f96565b9050919050565b6000613fe482612c2f565b9150613fef83612c2f565b92508282101561400257614001613741565b5b828203905092915050565b7f4552433732313a20617070726f766520746f2063616c6c657200000000000000600082015250565b6000614043601983612c6e565b915061404e8261400d565b602082019050919050565b6000602082019050818103600083015261407281614036565b9050919050565b7f4552433732313a207472616e7366657220746f206e6f6e20455243373231526560008201527f63656976657220696d706c656d656e7465720000000000000000000000000000602082015250565b60006140d5603283612c6e565b91506140e082614079565b604082019050919050565b60006020820190508181036000830152614104816140c8565b9050919050565b7f4552433732314d657461646174613a2055524920717565727920666f72206e6f60008201527f6e6578697374656e7420746f6b656e0000000000000000000000000000000000602082015250565b6000614167602f83612c6e565b91506141728261410b565b604082019050919050565b600060208201905081810360008301526141968161415a565b9050919050565b600081519050919050565b600082825260208201905092915050565b60006141c48261419d565b6141ce81856141a8565b93506141de818560208601612c7f565b6141e781612cb2565b840191505092915050565b60006080820190506142076000830187612da9565b6142146020830186612da9565b6142216040830185612c39565b818103606083015261423381846141b9565b905095945050505050565b60008151905061424d81612ba0565b92915050565b60006020828403121561426957614268612b6a565b5b60006142778482850161423e565b91505092915050565b600061428b82612c2f565b915061429683612c2f565b9250826142a6576142a5613d31565b5b828206905092915050565b7f4552433732313a206d696e7420746f20746865207a65726f2061646472657373600082015250565b60006142e7602083612c6e565b91506142f2826142b1565b602082019050919050565b60006020820190508181036000830152614316816142da565b9050919050565b7f4552433732313a20746f6b656e20616c7265616479206d696e74656400000000600082015250565b6000614353601c83612c6e565b915061435e8261431d565b602082019050919050565b6000602082019050818103600083015261438281614346565b905091905056fea26469706673582212203e3a49b5e4308fd455b8be7f0eb40949aa4a270a42728bd38dd7bceec245b78864736f6c634300080c0033",
  "immutableReferences": {},
  "source": "// SPDX-License-Identifier: GPL-3.0-or-later\npragma solidity >=0.8.0;\n\nimport \"@openzeppelin/contracts/token/ERC721/ERC721.sol\";\nimport \"@openzeppelin/contracts/token/ERC721/extensions/ERC721URIStorage.sol\";\nimport \"@openzeppelin/contracts/utils/Counters.sol\";\n\ncontract Freedom is ERC721URIStorage {\n    uint256 public counterCanzoni;\n    uint256 Anno;\n    address payable owner;\n    uint256 balanceAnnuale;\n    uint constant ETH_PER_ADD_CANZONE = 7;\n    uint constant ETH_PER_ADD_ASCOLTO_UTENTE = 2;\n    uint constant ETH_PER_ADD_ASCOLTO_PIATTA = 1;\n\n    struct Ascolti {\n        uint256 tokenId;\n        uint256 listens;\n    }\n\n    mapping(address => bool) piattaforme;\n    mapping(address => uint256[]) proprietari;\n    mapping(string => bool) tokenURIExists;\n    mapping(uint256 => uint256) ascolti;\n    mapping(uint256 => uint256) helper;\n    Ascolti[] public classifica;\n    Ascolti[] public sortedClassifica;\n\n    constructor() payable ERC721(\"Freedom\", \"FREE\") {\n        owner = payable(msg.sender);\n        Anno = block.timestamp + 365 days;\n        balanceAnnuale = 0;\n\n        address spotify = address(0xf2e34E46337248fECD2EAa83783ED0B8a450dD15);\n        piattaforme[spotify] = true;\n    }\n\n    fallback() external payable {}\n\n    receive() external payable {}\n\n    function addCanzone(string calldata _tokenURI) external returns (uint256) {\n        // controlla che l'indirizzo del chiamante  diverso da 0\n        require(msg.sender != address(0), \"indirizzo non valido\");\n        // controlla se il token uri gia esiste\n        require(!tokenURIExists[_tokenURI], \"URI esistente\");\n        uint256 amount = 2 ether;\n        //controlla se il balance del chiamante  sufficiente per inserire una canzone\n        require(msg.sender.balance >= amount);\n        //incrementa il contatore delle canzoni\n        counterCanzoni++;\n        // crea la canzone come nft\n        uint256 tokenId = counterCanzoni;\n        _safeMint(msg.sender, tokenId);\n        //imposta tokenURI\n        _setTokenURI(tokenId, _tokenURI);\n        tokenURIExists[_tokenURI] = true;\n        //inserisce la canzone al suo proprietario\n        proprietari[msg.sender].push(tokenId);\n        //setta a 0 gli ascolti\n        Ascolti memory newAscolti = Ascolti(tokenId, 0);\n        classifica.push(newAscolti);\n        //inviaEther(msg.sender ,address(this), 10000000000000000000);\n        balanceAnnuale += amount;\n        return tokenId;\n    }\n\n    function exists(uint256 tokenId) public view returns (bool) {\n        return _exists(tokenId);\n    }\n\n    function getLastTokenId() public view returns (uint256) {\n        return counterCanzoni;\n    }\n\n    function isPiattaforma() public view returns (bool) {\n        if (piattaforme[msg.sender] == true) return true;\n        else return false;\n    }\n\n    function getPropriBrani() public view returns (uint256[] memory) {\n        return proprietari[msg.sender];\n    }\n\n    function getAscolti(uint256 tokenId) public view returns (uint256) {\n        return ascolti[tokenId];\n    }\n\n    function depositaEthAddBrano() public payable returns (bool) {\n        require(msg.value != ETH_PER_ADD_CANZONE, \"Si sta cercando di trasmettere una quantita di ETH diversa da quella attesa\");\n\n        // Call returns a boolean value indicating success or failure.\n        // This is the current recommended method to use.\n        (bool sent, ) = payable(address(this)).call{value: msg.value}(\"\");\n        require(sent, \"Failed to send Ether\");\n        return sent;\n    }\n\n    function addAscolti(uint256 id) external returns (bool) {\n        // ottieni ascolti\n        uint256 amount = ETH_PER_ADD_ASCOLTO_UTENTE;\n        if (isPiattaforma()) {\n            amount = ETH_PER_ADD_ASCOLTO_PIATTA;\n        }\n        require(msg.sender.balance >= amount, \"Non hai abbastanza Ether\");\n        balanceAnnuale += amount;\n        ascolti[id] += 1;\n        for (uint256 i = 0; i < counterCanzoni; i++) {\n            if (classifica[i].tokenId == id) {\n                classifica[i].listens += 1;\n            }\n        }\n        return true;\n    }\n\n    function depositaEthaddAscolti() public payable returns (bool) {\n        require(msg.value != ETH_PER_ADD_ASCOLTO_UTENTE || msg.value != ETH_PER_ADD_ASCOLTO_PIATTA, \"Si sta cercando di trasmettere una quantita di ETH diversa da quella attesa\");\n\n        // Call returns a boolean value indicating success or failure.\n        // This is the current recommended method to use.\n        (bool sent, ) = payable(address(this)).call{value: msg.value}(\"\");\n        require(sent, \"Failed to send Ether\");\n        return sent;\n    }\n\n    function sort() private {\n        for (uint256 i = 0; i < classifica.length; i++) {\n            helper[i] = 0;\n            for (uint256 j = 0; j < i; j++) {\n                if (classifica[i].listens > classifica[j].listens) {\n                    helper[i] = helper[j];\n                    helper[j] = helper[j] + 1;\n                }\n            }\n            if (helper[i] == 0) {\n                helper[i] = i + 1;\n            }\n        }\n        uint256 lengthsortedClassifica = sortedClassifica.length;\n        for (uint256 i = 0; i < classifica.length; i++) {\n            if (i < lengthsortedClassifica) continue;\n            sortedClassifica.push(Ascolti(0, 0));\n        }\n\n        for (uint256 i = 0; i < classifica.length; i++) {\n            sortedClassifica[helper[i] - 1] = classifica[i];\n        }\n    }\n\n    function pagamentoClassifica() external payable returns (bool) {\n        require(msg.sender == owner, \"Non sei il proprietario\");\n        //require(block.timestamp >= Anno, \"Non ancora!!\");\n        sort();\n        //20% che verr spartito tra i top 10\n        uint256 value = (balanceAnnuale * 20) / 100;\n        //il 30% spartito tra tutti gli altri\n        uint256 value1 = (balanceAnnuale * 30) / 100;\n        for (uint256 i = 0; i < counterCanzoni; i++) {\n            uint256 amount = value1 / counterCanzoni;\n            if (i < 10) {\n                amount += value / 10;\n            }\n            (bool sent, ) = payable(ownerOf(classifica[i].tokenId)).call{value: amount }(\"\");\n            require(sent, \"Failed to send Ether\");\n            // inviaEther(payable(ownerOf(classifica[i].tokenId)),amount);\n            \n        }\n        balanceAnnuale = 0;\n        Anno = block.timestamp + 365 days;\n        return true;\n    }\n\n    function inviaEther(address payable _to, uint amount) public payable returns(bool){ \n        (bool sent, ) = _to.call{value: amount }(\"\");\n        require(sent, \"Failed to send Ether\");\n        return sent;\n    }\n\n    function ritiraEther() external payable returns (bool) {\n        (bool sent, ) = owner.call{value: (address(this).balance)}(\"\");\n        require(sent, \"Transfer Failed\");\n        return sent;\n    }\n\n    function checkDisponibilita () public payable returns(bool) {\n        if (msg.value <= msg.sender.balance) {\n            return true;\n        } else {\n            return false;\n        }\n    }\n\n    function getBalanceAnnuale () public view returns (uint256) {\n        return balanceAnnuale;\n    }\n    \n\n}",
  "sourcePath": "E:\\Progetti\\Blockchain\\HealtyChian\\contracts\\Freedom.sol",
  "compiler": {
    "name": "solc",
    "version": "0.8.12+commit.f00d7308.Emscripten.clang"
  },
  "schemaVersion": "3.4.4",
  "updatedAt": "2022-02-22T09:32:11.212Z",
  "networkType": "ethereum",
  "devdoc": {
    "kind": "dev",
    "methods": {
      "approve(address,uint256)": {
        "details": "See {IERC721-approve}."
      },
      "balanceOf(address)": {
        "details": "See {IERC721-balanceOf}."
      },
      "getApproved(uint256)": {
        "details": "See {IERC721-getApproved}."
      },
      "isApprovedForAll(address,address)": {
        "details": "See {IERC721-isApprovedForAll}."
      },
      "name()": {
        "details": "See {IERC721Metadata-name}."
      },
      "ownerOf(uint256)": {
        "details": "See {IERC721-ownerOf}."
      },
      "safeTransferFrom(address,address,uint256)": {
        "details": "See {IERC721-safeTransferFrom}."
      },
      "safeTransferFrom(address,address,uint256,bytes)": {
        "details": "See {IERC721-safeTransferFrom}."
      },
      "setApprovalForAll(address,bool)": {
        "details": "See {IERC721-setApprovalForAll}."
      },
      "supportsInterface(bytes4)": {
        "details": "See {IERC165-supportsInterface}."
      },
      "symbol()": {
        "details": "See {IERC721Metadata-symbol}."
      },
      "tokenURI(uint256)": {
        "details": "See {IERC721Metadata-tokenURI}."
      },
      "transferFrom(address,address,uint256)": {
        "details": "See {IERC721-transferFrom}."
      }
    },
    "version": 1
  },
  "userdoc": {
    "kind": "user",
    "methods": {},
    "version": 1
  }
}