{
  "contractName": "Freedom",
  "abi": [
    {
      "inputs": [],
      "stateMutability": "payable",
      "type": "constructor",
      "payable": true
    },
    {
      "anonymous": false,
      "inputs": [
        {
          "indexed": true,
          "internalType": "address",
          "name": "owner",
          "type": "address"
        },
        {
          "indexed": true,
          "internalType": "address",
          "name": "approved",
          "type": "address"
        },
        {
          "indexed": true,
          "internalType": "uint256",
          "name": "tokenId",
          "type": "uint256"
        }
      ],
      "name": "Approval",
      "type": "event"
    },
    {
      "anonymous": false,
      "inputs": [
        {
          "indexed": true,
          "internalType": "address",
          "name": "owner",
          "type": "address"
        },
        {
          "indexed": true,
          "internalType": "address",
          "name": "operator",
          "type": "address"
        },
        {
          "indexed": false,
          "internalType": "bool",
          "name": "approved",
          "type": "bool"
        }
      ],
      "name": "ApprovalForAll",
      "type": "event"
    },
    {
      "anonymous": false,
      "inputs": [
        {
          "indexed": true,
          "internalType": "address",
          "name": "from",
          "type": "address"
        },
        {
          "indexed": true,
          "internalType": "address",
          "name": "to",
          "type": "address"
        },
        {
          "indexed": true,
          "internalType": "uint256",
          "name": "tokenId",
          "type": "uint256"
        }
      ],
      "name": "Transfer",
      "type": "event"
    },
    {
      "stateMutability": "payable",
      "type": "fallback",
      "payable": true
    },
    {
      "inputs": [
        {
          "internalType": "address",
          "name": "to",
          "type": "address"
        },
        {
          "internalType": "uint256",
          "name": "tokenId",
          "type": "uint256"
        }
      ],
      "name": "approve",
      "outputs": [],
      "stateMutability": "nonpayable",
      "type": "function"
    },
    {
      "inputs": [
        {
          "internalType": "address",
          "name": "owner",
          "type": "address"
        }
      ],
      "name": "balanceOf",
      "outputs": [
        {
          "internalType": "uint256",
          "name": "",
          "type": "uint256"
        }
      ],
      "stateMutability": "view",
      "type": "function",
      "constant": true
    },
    {
      "inputs": [
        {
          "internalType": "uint256",
          "name": "",
          "type": "uint256"
        }
      ],
      "name": "classifica",
      "outputs": [
        {
          "internalType": "uint256",
          "name": "tokenId",
          "type": "uint256"
        },
        {
          "internalType": "uint256",
          "name": "listens",
          "type": "uint256"
        }
      ],
      "stateMutability": "view",
      "type": "function",
      "constant": true
    },
    {
      "inputs": [],
      "name": "counterCanzoni",
      "outputs": [
        {
          "internalType": "uint256",
          "name": "",
          "type": "uint256"
        }
      ],
      "stateMutability": "view",
      "type": "function",
      "constant": true
    },
    {
      "inputs": [
        {
          "internalType": "uint256",
          "name": "tokenId",
          "type": "uint256"
        }
      ],
      "name": "getApproved",
      "outputs": [
        {
          "internalType": "address",
          "name": "",
          "type": "address"
        }
      ],
      "stateMutability": "view",
      "type": "function",
      "constant": true
    },
    {
      "inputs": [
        {
          "internalType": "address",
          "name": "owner",
          "type": "address"
        },
        {
          "internalType": "address",
          "name": "operator",
          "type": "address"
        }
      ],
      "name": "isApprovedForAll",
      "outputs": [
        {
          "internalType": "bool",
          "name": "",
          "type": "bool"
        }
      ],
      "stateMutability": "view",
      "type": "function",
      "constant": true
    },
    {
      "inputs": [],
      "name": "name",
      "outputs": [
        {
          "internalType": "string",
          "name": "",
          "type": "string"
        }
      ],
      "stateMutability": "view",
      "type": "function",
      "constant": true
    },
    {
      "inputs": [
        {
          "internalType": "uint256",
          "name": "tokenId",
          "type": "uint256"
        }
      ],
      "name": "ownerOf",
      "outputs": [
        {
          "internalType": "address",
          "name": "",
          "type": "address"
        }
      ],
      "stateMutability": "view",
      "type": "function",
      "constant": true
    },
    {
      "inputs": [
        {
          "internalType": "address",
          "name": "from",
          "type": "address"
        },
        {
          "internalType": "address",
          "name": "to",
          "type": "address"
        },
        {
          "internalType": "uint256",
          "name": "tokenId",
          "type": "uint256"
        }
      ],
      "name": "safeTransferFrom",
      "outputs": [],
      "stateMutability": "nonpayable",
      "type": "function"
    },
    {
      "inputs": [
        {
          "internalType": "address",
          "name": "from",
          "type": "address"
        },
        {
          "internalType": "address",
          "name": "to",
          "type": "address"
        },
        {
          "internalType": "uint256",
          "name": "tokenId",
          "type": "uint256"
        },
        {
          "internalType": "bytes",
          "name": "_data",
          "type": "bytes"
        }
      ],
      "name": "safeTransferFrom",
      "outputs": [],
      "stateMutability": "nonpayable",
      "type": "function"
    },
    {
      "inputs": [
        {
          "internalType": "address",
          "name": "operator",
          "type": "address"
        },
        {
          "internalType": "bool",
          "name": "approved",
          "type": "bool"
        }
      ],
      "name": "setApprovalForAll",
      "outputs": [],
      "stateMutability": "nonpayable",
      "type": "function"
    },
    {
      "inputs": [
        {
          "internalType": "uint256",
          "name": "",
          "type": "uint256"
        }
      ],
      "name": "sortedClassifica",
      "outputs": [
        {
          "internalType": "uint256",
          "name": "tokenId",
          "type": "uint256"
        },
        {
          "internalType": "uint256",
          "name": "listens",
          "type": "uint256"
        }
      ],
      "stateMutability": "view",
      "type": "function",
      "constant": true
    },
    {
      "inputs": [
        {
          "internalType": "bytes4",
          "name": "interfaceId",
          "type": "bytes4"
        }
      ],
      "name": "supportsInterface",
      "outputs": [
        {
          "internalType": "bool",
          "name": "",
          "type": "bool"
        }
      ],
      "stateMutability": "view",
      "type": "function",
      "constant": true
    },
    {
      "inputs": [],
      "name": "symbol",
      "outputs": [
        {
          "internalType": "string",
          "name": "",
          "type": "string"
        }
      ],
      "stateMutability": "view",
      "type": "function",
      "constant": true
    },
    {
      "inputs": [
        {
          "internalType": "uint256",
          "name": "tokenId",
          "type": "uint256"
        }
      ],
      "name": "tokenURI",
      "outputs": [
        {
          "internalType": "string",
          "name": "",
          "type": "string"
        }
      ],
      "stateMutability": "view",
      "type": "function",
      "constant": true
    },
    {
      "inputs": [
        {
          "internalType": "address",
          "name": "from",
          "type": "address"
        },
        {
          "internalType": "address",
          "name": "to",
          "type": "address"
        },
        {
          "internalType": "uint256",
          "name": "tokenId",
          "type": "uint256"
        }
      ],
      "name": "transferFrom",
      "outputs": [],
      "stateMutability": "nonpayable",
      "type": "function"
    },
    {
      "stateMutability": "payable",
      "type": "receive",
      "payable": true
    },
    {
      "inputs": [
        {
          "internalType": "string",
          "name": "_tokenURI",
          "type": "string"
        }
      ],
      "name": "addCanzone",
      "outputs": [
        {
          "internalType": "uint256",
          "name": "",
          "type": "uint256"
        }
      ],
      "stateMutability": "nonpayable",
      "type": "function"
    },
    {
      "inputs": [
        {
          "internalType": "uint256",
          "name": "tokenId",
          "type": "uint256"
        }
      ],
      "name": "exists",
      "outputs": [
        {
          "internalType": "bool",
          "name": "",
          "type": "bool"
        }
      ],
      "stateMutability": "view",
      "type": "function",
      "constant": true
    },
    {
      "inputs": [],
      "name": "getLastTokenId",
      "outputs": [
        {
          "internalType": "uint256",
          "name": "",
          "type": "uint256"
        }
      ],
      "stateMutability": "view",
      "type": "function",
      "constant": true
    },
    {
      "inputs": [],
      "name": "isPiattaforma",
      "outputs": [
        {
          "internalType": "bool",
          "name": "",
          "type": "bool"
        }
      ],
      "stateMutability": "view",
      "type": "function",
      "constant": true
    },
    {
      "inputs": [],
      "name": "getPropriBrani",
      "outputs": [
        {
          "internalType": "uint256[]",
          "name": "",
          "type": "uint256[]"
        }
      ],
      "stateMutability": "view",
      "type": "function",
      "constant": true
    },
    {
      "inputs": [
        {
          "internalType": "uint256",
          "name": "tokenId",
          "type": "uint256"
        }
      ],
      "name": "getAscolti",
      "outputs": [
        {
          "internalType": "uint256",
          "name": "",
          "type": "uint256"
        }
      ],
      "stateMutability": "view",
      "type": "function",
      "constant": true
    },
    {
      "inputs": [],
      "name": "depositaEthAddBrano",
      "outputs": [
        {
          "internalType": "bool",
          "name": "",
          "type": "bool"
        }
      ],
      "stateMutability": "payable",
      "type": "function",
      "payable": true
    },
    {
      "inputs": [
        {
          "internalType": "uint256",
          "name": "id",
          "type": "uint256"
        }
      ],
      "name": "addAscolti",
      "outputs": [
        {
          "internalType": "bool",
          "name": "",
          "type": "bool"
        }
      ],
      "stateMutability": "nonpayable",
      "type": "function"
    },
    {
      "inputs": [],
      "name": "depositaEthaddAscolti",
      "outputs": [
        {
          "internalType": "bool",
          "name": "",
          "type": "bool"
        }
      ],
      "stateMutability": "payable",
      "type": "function",
      "payable": true
    },
    {
      "inputs": [],
      "name": "pagamentoClassifica",
      "outputs": [
        {
          "internalType": "bool",
          "name": "",
          "type": "bool"
        }
      ],
      "stateMutability": "payable",
      "type": "function",
      "payable": true
    },
    {
      "inputs": [],
      "name": "ritiraEther",
      "outputs": [
        {
          "internalType": "bool",
          "name": "",
          "type": "bool"
        }
      ],
      "stateMutability": "payable",
      "type": "function",
      "payable": true
    },
    {
      "inputs": [],
      "name": "ordinaClassifica",
      "outputs": [],
      "stateMutability": "nonpayable",
      "type": "function"
    }
  ],
  "bytecode": "0x60806040526040518060400160405280600781526020017f46726565646f6d000000000000000000000000000000000000000000000000008152506040518060400160405280600481526020017f46524545000000000000000000000000000000000000000000000000000000008152508160009080519060200190620000889291906200017d565b508060019080519060200190620000a19291906200017d565b50505033600960006101000a81548173ffffffffffffffffffffffffffffffffffffffff021916908373ffffffffffffffffffffffffffffffffffffffff1602179055506301e1338042620000f7919062000266565b6008819055506000600a81905550600073f2e34e46337248fecd2eaa83783ed0b8a450dd1590506001600b60008373ffffffffffffffffffffffffffffffffffffffff1673ffffffffffffffffffffffffffffffffffffffff16815260200190815260200160002060006101000a81548160ff0219169083151502179055505062000328565b8280546200018b90620002f2565b90600052602060002090601f016020900481019282620001af5760008555620001fb565b82601f10620001ca57805160ff1916838001178555620001fb565b82800160010185558215620001fb579182015b82811115620001fa578251825591602001919060010190620001dd565b5b5090506200020a91906200020e565b5090565b5b80821115620002295760008160009055506001016200020f565b5090565b6000819050919050565b7f4e487b7100000000000000000000000000000000000000000000000000000000600052601160045260246000fd5b600062000273826200022d565b915062000280836200022d565b9250827fffffffffffffffffffffffffffffffffffffffffffffffffffffffffffffffff03821115620002b857620002b762000237565b5b828201905092915050565b7f4e487b7100000000000000000000000000000000000000000000000000000000600052602260045260246000fd5b600060028204905060018216806200030b57607f821691505b60208210811415620003225762000321620002c3565b5b50919050565b61435680620003386000396000f3fe6080604052600436106101bb5760003560e01c806381f345f8116100ec578063a509bde71161008a578063c87b56dd11610064578063c87b56dd1461062a578063d125010214610667578063e2caa0de14610685578063e985e9c5146106c3576101c2565b8063a509bde7146105b8578063b88d4fde146105e3578063c3bacc661461060c576101c2565b8063899cbd43116100c6578063899cbd431461052257806395d89b411461054d5780639ab15ea514610578578063a22cb4651461058f576101c2565b806381f345f81461048f57806383c4c00d146104cc578063876a41d5146104f7576101c2565b80633db32bb1116101595780634f558e79116101335780634f558e79146103ba578063630c1521146103f75780636352211e1461041557806370a0823114610452576101c2565b80633db32bb11461031657806342842e0e146103545780634477bdb71461037d576101c2565b8063095ea7b311610195578063095ea7b3146102695780630c0f365a1461029257806318ecd9cc146102b057806323b872dd146102ed576101c2565b806301ffc9a7146101c457806306fdde0314610201578063081812fc1461022c576101c2565b366101c257005b005b3480156101d057600080fd5b506101eb60048036038101906101e69190612be1565b610700565b6040516101f89190612c29565b60405180910390f35b34801561020d57600080fd5b506102166107e2565b6040516102239190612cdd565b60405180910390f35b34801561023857600080fd5b50610253600480360381019061024e9190612d35565b610874565b6040516102609190612da3565b60405180910390f35b34801561027557600080fd5b50610290600480360381019061028b9190612dea565b6108f9565b005b61029a610a11565b6040516102a79190612c29565b60405180910390f35b3480156102bc57600080fd5b506102d760048036038101906102d29190612e8f565b610ae7565b6040516102e49190612eeb565b60405180910390f35b3480156102f957600080fd5b50610314600480360381019061030f9190612f06565b610d8e565b005b34801561032257600080fd5b5061033d60048036038101906103389190612d35565b610dee565b60405161034b929190612f59565b60405180910390f35b34801561036057600080fd5b5061037b60048036038101906103769190612f06565b610e22565b005b34801561038957600080fd5b506103a4600480360381019061039f9190612d35565b610e42565b6040516103b19190612eeb565b60405180910390f35b3480156103c657600080fd5b506103e160048036038101906103dc9190612d35565b610e5f565b6040516103ee9190612c29565b60405180910390f35b6103ff610e71565b60405161040c9190612c29565b60405180910390f35b34801561042157600080fd5b5061043c60048036038101906104379190612d35565b610f6a565b6040516104499190612da3565b60405180910390f35b34801561045e57600080fd5b5061047960048036038101906104749190612f82565b61101c565b6040516104869190612eeb565b60405180910390f35b34801561049b57600080fd5b506104b660048036038101906104b19190612d35565b6110d4565b6040516104c39190612c29565b60405180910390f35b3480156104d857600080fd5b506104e1611221565b6040516104ee9190612eeb565b60405180910390f35b34801561050357600080fd5b5061050c61122b565b604051610519919061306d565b60405180910390f35b34801561052e57600080fd5b506105376112c0565b6040516105449190612eeb565b60405180910390f35b34801561055957600080fd5b506105626112c6565b60405161056f9190612cdd565b60405180910390f35b34801561058457600080fd5b5061058d611358565b005b34801561059b57600080fd5b506105b660048036038101906105b191906130bb565b6114d7565b005b3480156105c457600080fd5b506105cd6114ed565b6040516105da9190612c29565b60405180910390f35b3480156105ef57600080fd5b5061060a6004803603810190610605919061322b565b611559565b005b6106146115bb565b6040516106219190612c29565b60405180910390f35b34801561063657600080fd5b50610651600480360381019061064c9190612d35565b6116c0565b60405161065e9190612cdd565b60405180910390f35b61066f611812565b60405161067c9190612c29565b60405180910390f35b34801561069157600080fd5b506106ac60048036038101906106a79190612d35565b611a43565b6040516106ba929190612f59565b60405180910390f35b3480156106cf57600080fd5b506106ea60048036038101906106e591906132ae565b611a77565b6040516106f79190612c29565b60405180910390f35b60007f80ac58cd000000000000000000000000000000000000000000000000000000007bffffffffffffffffffffffffffffffffffffffffffffffffffffffff1916827bffffffffffffffffffffffffffffffffffffffffffffffffffffffff191614806107cb57507f5b5e139f000000000000000000000000000000000000000000000000000000007bffffffffffffffffffffffffffffffffffffffffffffffffffffffff1916827bffffffffffffffffffffffffffffffffffffffffffffffffffffffff1916145b806107db57506107da82611b0b565b5b9050919050565b6060600080546107f19061331d565b80601f016020809104026020016040519081016040528092919081815260200182805461081d9061331d565b801561086a5780601f1061083f5761010080835404028352916020019161086a565b820191906000526020600020905b81548152906001019060200180831161084d57829003601f168201915b5050505050905090565b600061087f82611b75565b6108be576040517f08c379a00000000000000000000000000000000000000000000000000000000081526004016108b5906133c1565b60405180910390fd5b6004600083815260200190815260200160002060009054906101000a900473ffffffffffffffffffffffffffffffffffffffff169050919050565b600061090482610f6a565b90508073ffffffffffffffffffffffffffffffffffffffff168373ffffffffffffffffffffffffffffffffffffffff161415610975576040517f08c379a000000000000000000000000000000000000000000000000000000000815260040161096c90613453565b60405180910390fd5b8073ffffffffffffffffffffffffffffffffffffffff16610994611be1565b73ffffffffffffffffffffffffffffffffffffffff1614806109c357506109c2816109bd611be1565b611a77565b5b610a02576040517f08c379a00000000000000000000000000000000000000000000000000000000081526004016109f9906134e5565b60405180910390fd5b610a0c8383611be9565b505050565b600080600960009054906101000a900473ffffffffffffffffffffffffffffffffffffffff1673ffffffffffffffffffffffffffffffffffffffff1647604051610a5a90613536565b60006040518083038185875af1925050503d8060008114610a97576040519150601f19603f3d011682016040523d82523d6000602084013e610a9c565b606091505b5050905080610ae0576040517f08c379a0000000000000000000000000000000000000000000000000000000008152600401610ad790613597565b60405180910390fd5b8091505090565b60008073ffffffffffffffffffffffffffffffffffffffff163373ffffffffffffffffffffffffffffffffffffffff161415610b58576040517f08c379a0000000000000000000000000000000000000000000000000000000008152600401610b4f90613603565b60405180910390fd5b600d8383604051610b6a929190613653565b908152602001604051809103902060009054906101000a900460ff1615610bc6576040517f08c379a0000000000000000000000000000000000000000000000000000000008152600401610bbd906136b8565b60405180910390fd5b6000671bc16d674ec800009050803373ffffffffffffffffffffffffffffffffffffffff16311015610bf757600080fd5b60076000815480929190610c0a90613707565b919050555060006007549050610c203382611ca2565b610c6e8186868080601f016020809104026020016040519081016040528093929190818152602001838380828437600081840152601f19601f82011690508083019250505050505050611cc0565b6001600d8686604051610c82929190613653565b908152602001604051809103902060006101000a81548160ff021916908315150217905550600c60003373ffffffffffffffffffffffffffffffffffffffff1673ffffffffffffffffffffffffffffffffffffffff168152602001908152602001600020819080600181540180825580915050600190039060005260206000200160009091909190915055600060405180604001604052808381526020016000815250905060108190806001815401808255809150506001900390600052602060002090600202016000909190919091506000820151816000015560208201518160010155505082600a6000828254610d7b9190613750565b9250508190555081935050505092915050565b610d9f610d99611be1565b82611d34565b610dde576040517f08c379a0000000000000000000000000000000000000000000000000000000008152600401610dd590613818565b60405180910390fd5b610de9838383611e12565b505050565b60108181548110610dfe57600080fd5b90600052602060002090600202016000915090508060000154908060010154905082565b610e3d83838360405180602001604052806000815250611559565b505050565b6000600e6000838152602001908152602001600020549050919050565b6000610e6a82611b75565b9050919050565b60006007341415610eb7576040517f08c379a0000000000000000000000000000000000000000000000000000000008152600401610eae906138d0565b60405180910390fd5b60003073ffffffffffffffffffffffffffffffffffffffff1634604051610edd90613536565b60006040518083038185875af1925050503d8060008114610f1a576040519150601f19603f3d011682016040523d82523d6000602084013e610f1f565b606091505b5050905080610f63576040517f08c379a0000000000000000000000000000000000000000000000000000000008152600401610f5a9061393c565b60405180910390fd5b8091505090565b6000806002600084815260200190815260200160002060009054906101000a900473ffffffffffffffffffffffffffffffffffffffff169050600073ffffffffffffffffffffffffffffffffffffffff168173ffffffffffffffffffffffffffffffffffffffff161415611013576040517f08c379a000000000000000000000000000000000000000000000000000000000815260040161100a906139ce565b60405180910390fd5b80915050919050565b60008073ffffffffffffffffffffffffffffffffffffffff168273ffffffffffffffffffffffffffffffffffffffff16141561108d576040517f08c379a000000000000000000000000000000000000000000000000000000000815260040161108490613a60565b60405180910390fd5b600360008373ffffffffffffffffffffffffffffffffffffffff1673ffffffffffffffffffffffffffffffffffffffff168152602001908152602001600020549050919050565b600080600290506110e36114ed565b156110ed57600190505b803373ffffffffffffffffffffffffffffffffffffffff16311015611147576040517f08c379a000000000000000000000000000000000000000000000000000000000815260040161113e90613acc565b60405180910390fd5b80600a60008282546111599190613750565b925050819055506001600e600085815260200190815260200160002060008282546111849190613750565b9250508190555060005b6007548110156112165783601082815481106111ad576111ac613aec565b5b9060005260206000209060020201600001541415611203576001601082815481106111db576111da613aec565b5b906000526020600020906002020160010160008282546111fb9190613750565b925050819055505b808061120e90613707565b91505061118e565b506001915050919050565b6000600754905090565b6060600c60003373ffffffffffffffffffffffffffffffffffffffff1673ffffffffffffffffffffffffffffffffffffffff1681526020019081526020016000208054806020026020016040519081016040528092919081815260200182805480156112b657602002820191906000526020600020905b8154815260200190600101908083116112a2575b5050505050905090565b60075481565b6060600180546112d59061331d565b80601f01602080910402602001604051908101604052809291908181526020018280546113019061331d565b801561134e5780601f106113235761010080835404028352916020019161134e565b820191906000526020600020905b81548152906001019060200180831161133157829003601f168201915b5050505050905090565b6000600190505b6007548110156114d45760006010828154811061137f5761137e613aec565b5b906000526020600020906002020160405180604001604052908160008201548152602001600182015481525050905060006001836113bd9190613b1b565b90505b600081101580156113f957508160200151601082815481106113e5576113e4613aec565b5b906000526020600020906002020160010154105b15611479576010818154811061141257611411613aec565b5b9060005260206000209060020201601060018361142f9190613750565b815481106114405761143f613aec565b5b906000526020600020906002020160008201548160000155600182015481600101559050506001816114729190613750565b90506113c0565b8160106001836114899190613750565b8154811061149a57611499613aec565b5b90600052602060002090600202016000820151816000015560208201518160010155905050505080806114cc90613707565b91505061135f565b50565b6114e96114e2611be1565b8383612079565b5050565b600060011515600b60003373ffffffffffffffffffffffffffffffffffffffff1673ffffffffffffffffffffffffffffffffffffffff16815260200190815260200160002060009054906101000a900460ff16151514156115515760019050611556565b600090505b90565b61156a611564611be1565b83611d34565b6115a9576040517f08c379a00000000000000000000000000000000000000000000000000000000081526004016115a090613818565b60405180910390fd5b6115b5848484846121e6565b50505050565b60006002341415806115ce575060013414155b61160d576040517f08c379a0000000000000000000000000000000000000000000000000000000008152600401611604906138d0565b60405180910390fd5b60003073ffffffffffffffffffffffffffffffffffffffff163460405161163390613536565b60006040518083038185875af1925050503d8060008114611670576040519150601f19603f3d011682016040523d82523d6000602084013e611675565b606091505b50509050806116b9576040517f08c379a00000000000000000000000000000000000000000000000000000000081526004016116b09061393c565b60405180910390fd5b8091505090565b60606116cb82611b75565b61170a576040517f08c379a000000000000000000000000000000000000000000000000000000000815260040161170190613bc1565b60405180910390fd5b600060066000848152602001908152602001600020805461172a9061331d565b80601f01602080910402602001604051908101604052809291908181526020018280546117569061331d565b80156117a35780601f10611778576101008083540402835291602001916117a3565b820191906000526020600020905b81548152906001019060200180831161178657829003601f168201915b5050505050905060006117b4612242565b90506000815114156117ca57819250505061180d565b6000825111156117ff5780826040516020016117e7929190613c12565b6040516020818303038152906040529250505061180d565b61180884612259565b925050505b919050565b6000600960009054906101000a900473ffffffffffffffffffffffffffffffffffffffff1673ffffffffffffffffffffffffffffffffffffffff163373ffffffffffffffffffffffffffffffffffffffff16146118a4576040517f08c379a000000000000000000000000000000000000000000000000000000000815260040161189b90613c82565b60405180910390fd5b6118ac612300565b600060646014600a546118bf9190613ca2565b6118c99190613d2b565b905060006064601e600a546118de9190613ca2565b6118e89190613d2b565b905060005b600754811015611a1b576000600754836119079190613d2b565b9050600a82101561192d57600a8461191f9190613d2b565b8161192a9190613750565b90505b600061195d6010848154811061194657611945613aec565b5b906000526020600020906002020160000154610f6a565b73ffffffffffffffffffffffffffffffffffffffff168260405161198090613536565b60006040518083038185875af1925050503d80600081146119bd576040519150601f19603f3d011682016040523d82523d6000602084013e6119c2565b606091505b5050905080611a06576040517f08c379a00000000000000000000000000000000000000000000000000000000081526004016119fd9061393c565b60405180910390fd5b50508080611a1390613707565b9150506118ed565b506000600a819055506301e1338042611a349190613750565b60088190555060019250505090565b60118181548110611a5357600080fd5b90600052602060002090600202016000915090508060000154908060010154905082565b6000600560008473ffffffffffffffffffffffffffffffffffffffff1673ffffffffffffffffffffffffffffffffffffffff16815260200190815260200160002060008373ffffffffffffffffffffffffffffffffffffffff1673ffffffffffffffffffffffffffffffffffffffff16815260200190815260200160002060009054906101000a900460ff16905092915050565b60007f01ffc9a7000000000000000000000000000000000000000000000000000000007bffffffffffffffffffffffffffffffffffffffffffffffffffffffff1916827bffffffffffffffffffffffffffffffffffffffffffffffffffffffff1916149050919050565b60008073ffffffffffffffffffffffffffffffffffffffff166002600084815260200190815260200160002060009054906101000a900473ffffffffffffffffffffffffffffffffffffffff1673ffffffffffffffffffffffffffffffffffffffff1614159050919050565b600033905090565b816004600083815260200190815260200160002060006101000a81548173ffffffffffffffffffffffffffffffffffffffff021916908373ffffffffffffffffffffffffffffffffffffffff160217905550808273ffffffffffffffffffffffffffffffffffffffff16611c5c83610f6a565b73ffffffffffffffffffffffffffffffffffffffff167f8c5be1e5ebec7d5bd14f71427d1e84f3dd0314c0f7b2291e5b200ac8c7c3b92560405160405180910390a45050565b611cbc828260405180602001604052806000815250612587565b5050565b611cc982611b75565b611d08576040517f08c379a0000000000000000000000000000000000000000000000000000000008152600401611cff90613dce565b60405180910390fd5b80600660008481526020019081526020016000209080519060200190611d2f929190612ad2565b505050565b6000611d3f82611b75565b611d7e576040517f08c379a0000000000000000000000000000000000000000000000000000000008152600401611d7590613e60565b60405180910390fd5b6000611d8983610f6a565b90508073ffffffffffffffffffffffffffffffffffffffff168473ffffffffffffffffffffffffffffffffffffffff161480611df857508373ffffffffffffffffffffffffffffffffffffffff16611de084610874565b73ffffffffffffffffffffffffffffffffffffffff16145b80611e095750611e088185611a77565b5b91505092915050565b8273ffffffffffffffffffffffffffffffffffffffff16611e3282610f6a565b73ffffffffffffffffffffffffffffffffffffffff1614611e88576040517f08c379a0000000000000000000000000000000000000000000000000000000008152600401611e7f90613ef2565b60405180910390fd5b600073ffffffffffffffffffffffffffffffffffffffff168273ffffffffffffffffffffffffffffffffffffffff161415611ef8576040517f08c379a0000000000000000000000000000000000000000000000000000000008152600401611eef90613f84565b60405180910390fd5b611f038383836125e2565b611f0e600082611be9565b6001600360008573ffffffffffffffffffffffffffffffffffffffff1673ffffffffffffffffffffffffffffffffffffffff1681526020019081526020016000206000828254611f5e9190613b1b565b925050819055506001600360008473ffffffffffffffffffffffffffffffffffffffff1673ffffffffffffffffffffffffffffffffffffffff1681526020019081526020016000206000828254611fb59190613750565b92505081905550816002600083815260200190815260200160002060006101000a81548173ffffffffffffffffffffffffffffffffffffffff021916908373ffffffffffffffffffffffffffffffffffffffff160217905550808273ffffffffffffffffffffffffffffffffffffffff168473ffffffffffffffffffffffffffffffffffffffff167fddf252ad1be2c89b69c2b068fc378daa952ba7f163c4a11628f55a4df523b3ef60405160405180910390a46120748383836125e7565b505050565b8173ffffffffffffffffffffffffffffffffffffffff168373ffffffffffffffffffffffffffffffffffffffff1614156120e8576040517f08c379a00000000000000000000000000000000000000000000000000000000081526004016120df90613ff0565b60405180910390fd5b80600560008573ffffffffffffffffffffffffffffffffffffffff1673ffffffffffffffffffffffffffffffffffffffff16815260200190815260200160002060008473ffffffffffffffffffffffffffffffffffffffff1673ffffffffffffffffffffffffffffffffffffffff16815260200190815260200160002060006101000a81548160ff0219169083151502179055508173ffffffffffffffffffffffffffffffffffffffff168373ffffffffffffffffffffffffffffffffffffffff167f17307eab39ab6107e8899845ad3d59bd9653f200f220920489ca2b5937696c31836040516121d99190612c29565b60405180910390a3505050565b6121f1848484611e12565b6121fd848484846125ec565b61223c576040517f08c379a000000000000000000000000000000000000000000000000000000000815260040161223390614082565b60405180910390fd5b50505050565b606060405180602001604052806000815250905090565b606061226482611b75565b6122a3576040517f08c379a000000000000000000000000000000000000000000000000000000000815260040161229a90614114565b60405180910390fd5b60006122ad612242565b905060008151116122cd57604051806020016040528060008152506122f8565b806122d784612774565b6040516020016122e8929190613c12565b6040516020818303038152906040525b915050919050565b60005b601080549050811015612451576000600f60008381526020019081526020016000208190555060005b818110156123fc576010818154811061234857612347613aec565b5b9060005260206000209060020201600101546010838154811061236e5761236d613aec565b5b90600052602060002090600202016001015411156123e957600f600082815260200190815260200160002054600f6000848152602001908152602001600020819055506001600f6000838152602001908152602001600020546123d19190613750565b600f6000838152602001908152602001600020819055505b80806123f490613707565b91505061232c565b506000600f600083815260200190815260200160002054141561243e576001816124269190613750565b600f6000838152602001908152602001600020819055505b808061244990613707565b915050612303565b506000601180549050905060005b6010805490508110156124e55781811015612479576124d2565b601160405180604001604052806000815260200160008152509080600181540180825580915050600190039060005260206000209060020201600090919091909150600082015181600001556020820151816001015550505b80806124dd90613707565b91505061245f565b5060005b601080549050811015612583576010818154811061250a57612509613aec565b5b906000526020600020906002020160116001600f60008581526020019081526020016000205461253a9190613b1b565b8154811061254b5761254a613aec565b5b90600052602060002090600202016000820154816000015560018201548160010155905050808061257b90613707565b9150506124e9565b5050565b61259183836128d5565b61259e60008484846125ec565b6125dd576040517f08c379a00000000000000000000000000000000000000000000000000000000081526004016125d490614082565b60405180910390fd5b505050565b505050565b505050565b600061260d8473ffffffffffffffffffffffffffffffffffffffff16612aaf565b15612767578373ffffffffffffffffffffffffffffffffffffffff1663150b7a02612636611be1565b8786866040518563ffffffff1660e01b81526004016126589493929190614189565b6020604051808303816000875af192505050801561269457506040513d601f19601f8201168201806040525081019061269191906141ea565b60015b612717573d80600081146126c4576040519150601f19603f3d011682016040523d82523d6000602084013e6126c9565b606091505b5060008151141561270f576040517f08c379a000000000000000000000000000000000000000000000000000000000815260040161270690614082565b60405180910390fd5b805181602001fd5b63150b7a0260e01b7bffffffffffffffffffffffffffffffffffffffffffffffffffffffff1916817bffffffffffffffffffffffffffffffffffffffffffffffffffffffff19161491505061276c565b600190505b949350505050565b606060008214156127bc576040518060400160405280600181526020017f300000000000000000000000000000000000000000000000000000000000000081525090506128d0565b600082905060005b600082146127ee5780806127d790613707565b915050600a826127e79190613d2b565b91506127c4565b60008167ffffffffffffffff81111561280a57612809613100565b5b6040519080825280601f01601f19166020018201604052801561283c5781602001600182028036833780820191505090505b5090505b600085146128c9576001826128559190613b1b565b9150600a856128649190614217565b60306128709190613750565b60f81b81838151811061288657612885613aec565b5b60200101907effffffffffffffffffffffffffffffffffffffffffffffffffffffffffffff1916908160001a905350600a856128c29190613d2b565b9450612840565b8093505050505b919050565b600073ffffffffffffffffffffffffffffffffffffffff168273ffffffffffffffffffffffffffffffffffffffff161415612945576040517f08c379a000000000000000000000000000000000000000000000000000000000815260040161293c90614294565b60405180910390fd5b61294e81611b75565b1561298e576040517f08c379a000000000000000000000000000000000000000000000000000000000815260040161298590614300565b60405180910390fd5b61299a600083836125e2565b6001600360008473ffffffffffffffffffffffffffffffffffffffff1673ffffffffffffffffffffffffffffffffffffffff16815260200190815260200160002060008282546129ea9190613750565b92505081905550816002600083815260200190815260200160002060006101000a81548173ffffffffffffffffffffffffffffffffffffffff021916908373ffffffffffffffffffffffffffffffffffffffff160217905550808273ffffffffffffffffffffffffffffffffffffffff16600073ffffffffffffffffffffffffffffffffffffffff167fddf252ad1be2c89b69c2b068fc378daa952ba7f163c4a11628f55a4df523b3ef60405160405180910390a4612aab600083836125e7565b5050565b6000808273ffffffffffffffffffffffffffffffffffffffff163b119050919050565b828054612ade9061331d565b90600052602060002090601f016020900481019282612b005760008555612b47565b82601f10612b1957805160ff1916838001178555612b47565b82800160010185558215612b47579182015b82811115612b46578251825591602001919060010190612b2b565b5b509050612b549190612b58565b5090565b5b80821115612b71576000816000905550600101612b59565b5090565b6000604051905090565b600080fd5b600080fd5b60007fffffffff0000000000000000000000000000000000000000000000000000000082169050919050565b612bbe81612b89565b8114612bc957600080fd5b50565b600081359050612bdb81612bb5565b92915050565b600060208284031215612bf757612bf6612b7f565b5b6000612c0584828501612bcc565b91505092915050565b60008115159050919050565b612c2381612c0e565b82525050565b6000602082019050612c3e6000830184612c1a565b92915050565b600081519050919050565b600082825260208201905092915050565b60005b83811015612c7e578082015181840152602081019050612c63565b83811115612c8d576000848401525b50505050565b6000601f19601f8301169050919050565b6000612caf82612c44565b612cb98185612c4f565b9350612cc9818560208601612c60565b612cd281612c93565b840191505092915050565b60006020820190508181036000830152612cf78184612ca4565b905092915050565b6000819050919050565b612d1281612cff565b8114612d1d57600080fd5b50565b600081359050612d2f81612d09565b92915050565b600060208284031215612d4b57612d4a612b7f565b5b6000612d5984828501612d20565b91505092915050565b600073ffffffffffffffffffffffffffffffffffffffff82169050919050565b6000612d8d82612d62565b9050919050565b612d9d81612d82565b82525050565b6000602082019050612db86000830184612d94565b92915050565b612dc781612d82565b8114612dd257600080fd5b50565b600081359050612de481612dbe565b92915050565b60008060408385031215612e0157612e00612b7f565b5b6000612e0f85828601612dd5565b9250506020612e2085828601612d20565b9150509250929050565b600080fd5b600080fd5b600080fd5b60008083601f840112612e4f57612e4e612e2a565b5b8235905067ffffffffffffffff811115612e6c57612e6b612e2f565b5b602083019150836001820283011115612e8857612e87612e34565b5b9250929050565b60008060208385031215612ea657612ea5612b7f565b5b600083013567ffffffffffffffff811115612ec457612ec3612b84565b5b612ed085828601612e39565b92509250509250929050565b612ee581612cff565b82525050565b6000602082019050612f006000830184612edc565b92915050565b600080600060608486031215612f1f57612f1e612b7f565b5b6000612f2d86828701612dd5565b9350506020612f3e86828701612dd5565b9250506040612f4f86828701612d20565b9150509250925092565b6000604082019050612f6e6000830185612edc565b612f7b6020830184612edc565b9392505050565b600060208284031215612f9857612f97612b7f565b5b6000612fa684828501612dd5565b91505092915050565b600081519050919050565b600082825260208201905092915050565b6000819050602082019050919050565b612fe481612cff565b82525050565b6000612ff68383612fdb565b60208301905092915050565b6000602082019050919050565b600061301a82612faf565b6130248185612fba565b935061302f83612fcb565b8060005b838110156130605781516130478882612fea565b975061305283613002565b925050600181019050613033565b5085935050505092915050565b60006020820190508181036000830152613087818461300f565b905092915050565b61309881612c0e565b81146130a357600080fd5b50565b6000813590506130b58161308f565b92915050565b600080604083850312156130d2576130d1612b7f565b5b60006130e085828601612dd5565b92505060206130f1858286016130a6565b9150509250929050565b600080fd5b7f4e487b7100000000000000000000000000000000000000000000000000000000600052604160045260246000fd5b61313882612c93565b810181811067ffffffffffffffff8211171561315757613156613100565b5b80604052505050565b600061316a612b75565b9050613176828261312f565b919050565b600067ffffffffffffffff82111561319657613195613100565b5b61319f82612c93565b9050602081019050919050565b82818337600083830152505050565b60006131ce6131c98461317b565b613160565b9050828152602081018484840111156131ea576131e96130fb565b5b6131f58482856131ac565b509392505050565b600082601f83011261321257613211612e2a565b5b81356132228482602086016131bb565b91505092915050565b6000806000806080858703121561324557613244612b7f565b5b600061325387828801612dd5565b945050602061326487828801612dd5565b935050604061327587828801612d20565b925050606085013567ffffffffffffffff81111561329657613295612b84565b5b6132a2878288016131fd565b91505092959194509250565b600080604083850312156132c5576132c4612b7f565b5b60006132d385828601612dd5565b92505060206132e485828601612dd5565b9150509250929050565b7f4e487b7100000000000000000000000000000000000000000000000000000000600052602260045260246000fd5b6000600282049050600182168061333557607f821691505b60208210811415613349576133486132ee565b5b50919050565b7f4552433732313a20617070726f76656420717565727920666f72206e6f6e657860008201527f697374656e7420746f6b656e0000000000000000000000000000000000000000602082015250565b60006133ab602c83612c4f565b91506133b68261334f565b604082019050919050565b600060208201905081810360008301526133da8161339e565b9050919050565b7f4552433732313a20617070726f76616c20746f2063757272656e74206f776e6560008201527f7200000000000000000000000000000000000000000000000000000000000000602082015250565b600061343d602183612c4f565b9150613448826133e1565b604082019050919050565b6000602082019050818103600083015261346c81613430565b9050919050565b7f4552433732313a20617070726f76652063616c6c6572206973206e6f74206f7760008201527f6e6572206e6f7220617070726f76656420666f7220616c6c0000000000000000602082015250565b60006134cf603883612c4f565b91506134da82613473565b604082019050919050565b600060208201905081810360008301526134fe816134c2565b9050919050565b600081905092915050565b50565b6000613520600083613505565b915061352b82613510565b600082019050919050565b600061354182613513565b9150819050919050565b7f5472616e73666572204661696c65640000000000000000000000000000000000600082015250565b6000613581600f83612c4f565b915061358c8261354b565b602082019050919050565b600060208201905081810360008301526135b081613574565b9050919050565b7f696e646972697a7a6f206e6f6e2076616c69646f000000000000000000000000600082015250565b60006135ed601483612c4f565b91506135f8826135b7565b602082019050919050565b6000602082019050818103600083015261361c816135e0565b9050919050565b600081905092915050565b600061363a8385613623565b93506136478385846131ac565b82840190509392505050565b600061366082848661362e565b91508190509392505050565b7f555249206573697374656e746500000000000000000000000000000000000000600082015250565b60006136a2600d83612c4f565b91506136ad8261366c565b602082019050919050565b600060208201905081810360008301526136d181613695565b9050919050565b7f4e487b7100000000000000000000000000000000000000000000000000000000600052601160045260246000fd5b600061371282612cff565b91507fffffffffffffffffffffffffffffffffffffffffffffffffffffffffffffffff821415613745576137446136d8565b5b600182019050919050565b600061375b82612cff565b915061376683612cff565b9250827fffffffffffffffffffffffffffffffffffffffffffffffffffffffffffffffff0382111561379b5761379a6136d8565b5b828201905092915050565b7f4552433732313a207472616e736665722063616c6c6572206973206e6f74206f60008201527f776e6572206e6f7220617070726f766564000000000000000000000000000000602082015250565b6000613802603183612c4f565b915061380d826137a6565b604082019050919050565b60006020820190508181036000830152613831816137f5565b9050919050565b7f5369207374612063657263616e646f20646920747261736d657474657265207560008201527f6e61207175616e7469746120646920455448206469766572736120646120717560208201527f656c6c6120617474657361000000000000000000000000000000000000000000604082015250565b60006138ba604b83612c4f565b91506138c582613838565b606082019050919050565b600060208201905081810360008301526138e9816138ad565b9050919050565b7f4661696c656420746f2073656e64204574686572000000000000000000000000600082015250565b6000613926601483612c4f565b9150613931826138f0565b602082019050919050565b6000602082019050818103600083015261395581613919565b9050919050565b7f4552433732313a206f776e657220717565727920666f72206e6f6e657869737460008201527f656e7420746f6b656e0000000000000000000000000000000000000000000000602082015250565b60006139b8602983612c4f565b91506139c38261395c565b604082019050919050565b600060208201905081810360008301526139e7816139ab565b9050919050565b7f4552433732313a2062616c616e636520717565727920666f7220746865207a6560008201527f726f206164647265737300000000000000000000000000000000000000000000602082015250565b6000613a4a602a83612c4f565b9150613a55826139ee565b604082019050919050565b60006020820190508181036000830152613a7981613a3d565b9050919050565b7f4e6f6e2068616920616262617374616e7a612045746865720000000000000000600082015250565b6000613ab6601883612c4f565b9150613ac182613a80565b602082019050919050565b60006020820190508181036000830152613ae581613aa9565b9050919050565b7f4e487b7100000000000000000000000000000000000000000000000000000000600052603260045260246000fd5b6000613b2682612cff565b9150613b3183612cff565b925082821015613b4457613b436136d8565b5b828203905092915050565b7f45524337323155524953746f726167653a2055524920717565727920666f722060008201527f6e6f6e6578697374656e7420746f6b656e000000000000000000000000000000602082015250565b6000613bab603183612c4f565b9150613bb682613b4f565b604082019050919050565b60006020820190508181036000830152613bda81613b9e565b9050919050565b6000613bec82612c44565b613bf68185613623565b9350613c06818560208601612c60565b80840191505092915050565b6000613c1e8285613be1565b9150613c2a8284613be1565b91508190509392505050565b7f4e6f6e2073656920696c2070726f70726965746172696f000000000000000000600082015250565b6000613c6c601783612c4f565b9150613c7782613c36565b602082019050919050565b60006020820190508181036000830152613c9b81613c5f565b9050919050565b6000613cad82612cff565b9150613cb883612cff565b9250817fffffffffffffffffffffffffffffffffffffffffffffffffffffffffffffffff0483118215151615613cf157613cf06136d8565b5b828202905092915050565b7f4e487b7100000000000000000000000000000000000000000000000000000000600052601260045260246000fd5b6000613d3682612cff565b9150613d4183612cff565b925082613d5157613d50613cfc565b5b828204905092915050565b7f45524337323155524953746f726167653a2055524920736574206f66206e6f6e60008201527f6578697374656e7420746f6b656e000000000000000000000000000000000000602082015250565b6000613db8602e83612c4f565b9150613dc382613d5c565b604082019050919050565b60006020820190508181036000830152613de781613dab565b9050919050565b7f4552433732313a206f70657261746f7220717565727920666f72206e6f6e657860008201527f697374656e7420746f6b656e0000000000000000000000000000000000000000602082015250565b6000613e4a602c83612c4f565b9150613e5582613dee565b604082019050919050565b60006020820190508181036000830152613e7981613e3d565b9050919050565b7f4552433732313a207472616e736665722066726f6d20696e636f72726563742060008201527f6f776e6572000000000000000000000000000000000000000000000000000000602082015250565b6000613edc602583612c4f565b9150613ee782613e80565b604082019050919050565b60006020820190508181036000830152613f0b81613ecf565b9050919050565b7f4552433732313a207472616e7366657220746f20746865207a65726f2061646460008201527f7265737300000000000000000000000000000000000000000000000000000000602082015250565b6000613f6e602483612c4f565b9150613f7982613f12565b604082019050919050565b60006020820190508181036000830152613f9d81613f61565b9050919050565b7f4552433732313a20617070726f766520746f2063616c6c657200000000000000600082015250565b6000613fda601983612c4f565b9150613fe582613fa4565b602082019050919050565b6000602082019050818103600083015261400981613fcd565b9050919050565b7f4552433732313a207472616e7366657220746f206e6f6e20455243373231526560008201527f63656976657220696d706c656d656e7465720000000000000000000000000000602082015250565b600061406c603283612c4f565b915061407782614010565b604082019050919050565b6000602082019050818103600083015261409b8161405f565b9050919050565b7f4552433732314d657461646174613a2055524920717565727920666f72206e6f60008201527f6e6578697374656e7420746f6b656e0000000000000000000000000000000000602082015250565b60006140fe602f83612c4f565b9150614109826140a2565b604082019050919050565b6000602082019050818103600083015261412d816140f1565b9050919050565b600081519050919050565b600082825260208201905092915050565b600061415b82614134565b614165818561413f565b9350614175818560208601612c60565b61417e81612c93565b840191505092915050565b600060808201905061419e6000830187612d94565b6141ab6020830186612d94565b6141b86040830185612edc565b81810360608301526141ca8184614150565b905095945050505050565b6000815190506141e481612bb5565b92915050565b600060208284031215614200576141ff612b7f565b5b600061420e848285016141d5565b91505092915050565b600061422282612cff565b915061422d83612cff565b92508261423d5761423c613cfc565b5b828206905092915050565b7f4552433732313a206d696e7420746f20746865207a65726f2061646472657373600082015250565b600061427e602083612c4f565b915061428982614248565b602082019050919050565b600060208201905081810360008301526142ad81614271565b9050919050565b7f4552433732313a20746f6b656e20616c7265616479206d696e74656400000000600082015250565b60006142ea601c83612c4f565b91506142f5826142b4565b602082019050919050565b60006020820190508181036000830152614319816142dd565b905091905056fea264697066735822122077055596bfec76899684b0e0d054f6dfc7ee16be0337227f17d75c9a73c1216e64736f6c634300080c0033",
  "immutableReferences": {},
  "source": "// SPDX-License-Identifier: GPL-3.0-or-later\npragma solidity >=0.8.0;\n\nimport \"@openzeppelin/contracts/token/ERC721/ERC721.sol\";\nimport \"@openzeppelin/contracts/token/ERC721/extensions/ERC721URIStorage.sol\";\nimport \"@openzeppelin/contracts/utils/Counters.sol\";\n\ncontract Freedom is ERC721URIStorage {\n    uint256 public counterCanzoni;\n    uint256 Anno;\n    address payable owner;\n    uint256 balanceAnnuale;\n    uint constant ETH_PER_ADD_CANZONE = 7;\n    uint constant ETH_PER_ADD_ASCOLTO_UTENTE = 2;\n    uint constant ETH_PER_ADD_ASCOLTO_PIATTA = 1;\n\n    struct Ascolti {\n        uint256 tokenId;\n        uint256 listens;\n    }\n\n    mapping(address => bool) piattaforme;\n    mapping(address => uint256[]) proprietari;\n    mapping(string => bool) tokenURIExists;\n    mapping(uint256 => uint256) ascolti;\n    mapping(uint256 => uint256) helper;\n    Ascolti[] public classifica;\n    Ascolti[] public sortedClassifica;\n\n    constructor() payable ERC721(\"Freedom\", \"FREE\") {\n        owner = payable(msg.sender);\n        Anno = block.timestamp + 365 days;\n        balanceAnnuale = 0;\n\n        address spotify = address(0xf2e34E46337248fECD2EAa83783ED0B8a450dD15);\n        piattaforme[spotify] = true;\n    }\n\n    fallback() external payable {}\n\n    receive() external payable {}\n\n    function addCanzone(string calldata _tokenURI) external returns (uint256) {\n        // controlla che l'indirizzo del chiamante  diverso da 0\n        require(msg.sender != address(0), \"indirizzo non valido\");\n        // controlla se il token uri gia esiste\n        require(!tokenURIExists[_tokenURI], \"URI esistente\");\n        uint256 amount = 2 ether;\n        //controlla se il balance del chiamante  sufficiente per inserire una canzone\n        require(msg.sender.balance >= amount);\n        //incrementa il contatore delle canzoni\n        counterCanzoni++;\n        // crea la canzone come nft\n        uint256 tokenId = counterCanzoni;\n        _safeMint(msg.sender, tokenId);\n        //imposta tokenURI\n        _setTokenURI(tokenId, _tokenURI);\n        tokenURIExists[_tokenURI] = true;\n        //inserisce la canzone al suo proprietario\n        proprietari[msg.sender].push(tokenId);\n        //setta a 0 gli ascolti\n        Ascolti memory newAscolti = Ascolti(tokenId, 0);\n        classifica.push(newAscolti);\n        //inviaEther(msg.sender ,address(this), 10000000000000000000);\n        balanceAnnuale += amount;\n        return tokenId;\n    }\n\n    function exists(uint256 tokenId) public view returns (bool) {\n        return _exists(tokenId);\n    }\n\n    function getLastTokenId() public view returns (uint256) {\n        return counterCanzoni;\n    }\n\n    function isPiattaforma() public view returns (bool) {\n        if (piattaforme[msg.sender] == true) return true;\n        else return false;\n    }\n\n    function getPropriBrani() public view returns (uint256[] memory) {\n        return proprietari[msg.sender];\n    }\n\n    function getAscolti(uint256 tokenId) public view returns (uint256) {\n        return ascolti[tokenId];\n    }\n\n    function depositaEthAddBrano() public payable returns (bool) {\n        require(msg.value != ETH_PER_ADD_CANZONE, \"Si sta cercando di trasmettere una quantita di ETH diversa da quella attesa\");\n\n        // Call returns a boolean value indicating success or failure.\n        // This is the current recommended method to use.\n        (bool sent, ) = payable(address(this)).call{value: msg.value}(\"\");\n        require(sent, \"Failed to send Ether\");\n        return sent;\n    }\n\n    function addAscolti(uint256 id) external returns (bool) {\n        // ottieni ascolti\n        uint256 amount = ETH_PER_ADD_ASCOLTO_UTENTE;\n        if (isPiattaforma()) {\n            amount = ETH_PER_ADD_ASCOLTO_PIATTA;\n        }\n        require(msg.sender.balance >= amount, \"Non hai abbastanza Ether\");\n        balanceAnnuale += amount;\n        ascolti[id] += 1;\n        for (uint256 i = 0; i < counterCanzoni; i++) {\n            if (classifica[i].tokenId == id) {\n                classifica[i].listens += 1;\n            }\n        }\n        return true;\n    }\n\n    function depositaEthaddAscolti() public payable returns (bool) {\n        require(msg.value != ETH_PER_ADD_ASCOLTO_UTENTE || msg.value != ETH_PER_ADD_ASCOLTO_PIATTA, \"Si sta cercando di trasmettere una quantita di ETH diversa da quella attesa\");\n\n        // Call returns a boolean value indicating success or failure.\n        // This is the current recommended method to use.\n        (bool sent, ) = payable(address(this)).call{value: msg.value}(\"\");\n        require(sent, \"Failed to send Ether\");\n        return sent;\n    }\n\n    function sort() private {\n        for (uint256 i = 0; i < classifica.length; i++) {\n            helper[i] = 0;\n            for (uint256 j = 0; j < i; j++) {\n                if (classifica[i].listens > classifica[j].listens) {\n                    helper[i] = helper[j];\n                    helper[j] = helper[j] + 1;\n                }\n            }\n            if (helper[i] == 0) {\n                helper[i] = i + 1;\n            }\n        }\n        uint256 lengthsortedClassifica = sortedClassifica.length;\n        for (uint256 i = 0; i < classifica.length; i++) {\n            if (i < lengthsortedClassifica) continue;\n            sortedClassifica.push(Ascolti(0, 0));\n        }\n\n        for (uint256 i = 0; i < classifica.length; i++) {\n            sortedClassifica[helper[i] - 1] = classifica[i];\n        }\n    }\n\n    function pagamentoClassifica() external payable returns (bool) {\n        require(msg.sender == owner, \"Non sei il proprietario\");\n        //require(block.timestamp >= Anno, \"Non ancora!!\");\n        sort();\n        //20% che verr spartito tra i top 10\n        uint256 value = (balanceAnnuale * 20) / 100;\n        //il 30% spartito tra tutti gli altri\n        uint256 value1 = (balanceAnnuale * 30) / 100;\n        for (uint256 i = 0; i < counterCanzoni; i++) {\n            uint256 amount = value1 / counterCanzoni;\n            if (i < 10) {\n                amount += value / 10;\n            }\n            (bool sent, ) = payable(ownerOf(classifica[i].tokenId)).call{\n                value: amount\n            }(\"\");\n            require(sent, \"Failed to send Ether\");\n        }\n        balanceAnnuale = 0;\n        Anno = block.timestamp + 365 days;\n        return true;\n    }\n\n    function ritiraEther() external payable returns (bool) {\n        (bool sent, ) = owner.call{value: (address(this).balance)}(\"\");\n        require(sent, \"Transfer Failed\");\n        return sent;\n    }\n\n    function ordinaClassifica() public {\n        //private\n        for (uint256 i = 1; i < counterCanzoni; i++) {\n            Ascolti memory value = classifica[i];\n            uint256 j = i - 1;\n            while (j >= 0 && classifica[j].listens < value.listens) {\n                classifica[j + 1] = classifica[j];\n                j = j + 1;\n            }\n            classifica[j + 1] = value;\n        }\n    }\n}\n",
  "sourcePath": "E:\\Progetti\\Blockchain\\HealtyChian\\contracts\\Freedom.sol",
  "compiler": {
    "name": "solc",
    "version": "0.8.12+commit.f00d7308.Emscripten.clang"
  },
  "schemaVersion": "3.4.4",
  "updatedAt": "2022-02-21T17:36:51.721Z",
  "networkType": "ethereum",
  "devdoc": {
    "kind": "dev",
    "methods": {
      "approve(address,uint256)": {
        "details": "See {IERC721-approve}."
      },
      "balanceOf(address)": {
        "details": "See {IERC721-balanceOf}."
      },
      "getApproved(uint256)": {
        "details": "See {IERC721-getApproved}."
      },
      "isApprovedForAll(address,address)": {
        "details": "See {IERC721-isApprovedForAll}."
      },
      "name()": {
        "details": "See {IERC721Metadata-name}."
      },
      "ownerOf(uint256)": {
        "details": "See {IERC721-ownerOf}."
      },
      "safeTransferFrom(address,address,uint256)": {
        "details": "See {IERC721-safeTransferFrom}."
      },
      "safeTransferFrom(address,address,uint256,bytes)": {
        "details": "See {IERC721-safeTransferFrom}."
      },
      "setApprovalForAll(address,bool)": {
        "details": "See {IERC721-setApprovalForAll}."
      },
      "supportsInterface(bytes4)": {
        "details": "See {IERC165-supportsInterface}."
      },
      "symbol()": {
        "details": "See {IERC721Metadata-symbol}."
      },
      "tokenURI(uint256)": {
        "details": "See {IERC721Metadata-tokenURI}."
      },
      "transferFrom(address,address,uint256)": {
        "details": "See {IERC721-transferFrom}."
      }
    },
    "version": 1
  },
  "userdoc": {
    "kind": "user",
    "methods": {},
    "version": 1
  }
}