{
  "contractName": "Freedom",
  "abi": [
    {
      "inputs": [],
      "stateMutability": "payable",
      "type": "constructor",
      "payable": true
    },
    {
      "anonymous": false,
      "inputs": [
        {
          "indexed": true,
          "internalType": "address",
          "name": "owner",
          "type": "address"
        },
        {
          "indexed": true,
          "internalType": "address",
          "name": "approved",
          "type": "address"
        },
        {
          "indexed": true,
          "internalType": "uint256",
          "name": "tokenId",
          "type": "uint256"
        }
      ],
      "name": "Approval",
      "type": "event"
    },
    {
      "anonymous": false,
      "inputs": [
        {
          "indexed": true,
          "internalType": "address",
          "name": "owner",
          "type": "address"
        },
        {
          "indexed": true,
          "internalType": "address",
          "name": "operator",
          "type": "address"
        },
        {
          "indexed": false,
          "internalType": "bool",
          "name": "approved",
          "type": "bool"
        }
      ],
      "name": "ApprovalForAll",
      "type": "event"
    },
    {
      "anonymous": false,
      "inputs": [
        {
          "indexed": true,
          "internalType": "address",
          "name": "from",
          "type": "address"
        },
        {
          "indexed": true,
          "internalType": "address",
          "name": "to",
          "type": "address"
        },
        {
          "indexed": true,
          "internalType": "uint256",
          "name": "tokenId",
          "type": "uint256"
        }
      ],
      "name": "Transfer",
      "type": "event"
    },
    {
      "stateMutability": "payable",
      "type": "fallback",
      "payable": true
    },
    {
      "inputs": [
        {
          "internalType": "address",
          "name": "to",
          "type": "address"
        },
        {
          "internalType": "uint256",
          "name": "tokenId",
          "type": "uint256"
        }
      ],
      "name": "approve",
      "outputs": [],
      "stateMutability": "nonpayable",
      "type": "function"
    },
    {
      "inputs": [
        {
          "internalType": "address",
          "name": "owner",
          "type": "address"
        }
      ],
      "name": "balanceOf",
      "outputs": [
        {
          "internalType": "uint256",
          "name": "",
          "type": "uint256"
        }
      ],
      "stateMutability": "view",
      "type": "function",
      "constant": true
    },
    {
      "inputs": [
        {
          "internalType": "uint256",
          "name": "",
          "type": "uint256"
        }
      ],
      "name": "classifica",
      "outputs": [
        {
          "internalType": "uint256",
          "name": "tokenId",
          "type": "uint256"
        },
        {
          "internalType": "uint256",
          "name": "listens",
          "type": "uint256"
        }
      ],
      "stateMutability": "view",
      "type": "function",
      "constant": true
    },
    {
      "inputs": [],
      "name": "counterCanzoni",
      "outputs": [
        {
          "internalType": "uint256",
          "name": "",
          "type": "uint256"
        }
      ],
      "stateMutability": "view",
      "type": "function",
      "constant": true
    },
    {
      "inputs": [
        {
          "internalType": "uint256",
          "name": "tokenId",
          "type": "uint256"
        }
      ],
      "name": "getApproved",
      "outputs": [
        {
          "internalType": "address",
          "name": "",
          "type": "address"
        }
      ],
      "stateMutability": "view",
      "type": "function",
      "constant": true
    },
    {
      "inputs": [
        {
          "internalType": "address",
          "name": "owner",
          "type": "address"
        },
        {
          "internalType": "address",
          "name": "operator",
          "type": "address"
        }
      ],
      "name": "isApprovedForAll",
      "outputs": [
        {
          "internalType": "bool",
          "name": "",
          "type": "bool"
        }
      ],
      "stateMutability": "view",
      "type": "function",
      "constant": true
    },
    {
      "inputs": [],
      "name": "name",
      "outputs": [
        {
          "internalType": "string",
          "name": "",
          "type": "string"
        }
      ],
      "stateMutability": "view",
      "type": "function",
      "constant": true
    },
    {
      "inputs": [
        {
          "internalType": "uint256",
          "name": "tokenId",
          "type": "uint256"
        }
      ],
      "name": "ownerOf",
      "outputs": [
        {
          "internalType": "address",
          "name": "",
          "type": "address"
        }
      ],
      "stateMutability": "view",
      "type": "function",
      "constant": true
    },
    {
      "inputs": [
        {
          "internalType": "address",
          "name": "from",
          "type": "address"
        },
        {
          "internalType": "address",
          "name": "to",
          "type": "address"
        },
        {
          "internalType": "uint256",
          "name": "tokenId",
          "type": "uint256"
        }
      ],
      "name": "safeTransferFrom",
      "outputs": [],
      "stateMutability": "nonpayable",
      "type": "function"
    },
    {
      "inputs": [
        {
          "internalType": "address",
          "name": "from",
          "type": "address"
        },
        {
          "internalType": "address",
          "name": "to",
          "type": "address"
        },
        {
          "internalType": "uint256",
          "name": "tokenId",
          "type": "uint256"
        },
        {
          "internalType": "bytes",
          "name": "_data",
          "type": "bytes"
        }
      ],
      "name": "safeTransferFrom",
      "outputs": [],
      "stateMutability": "nonpayable",
      "type": "function"
    },
    {
      "inputs": [
        {
          "internalType": "address",
          "name": "operator",
          "type": "address"
        },
        {
          "internalType": "bool",
          "name": "approved",
          "type": "bool"
        }
      ],
      "name": "setApprovalForAll",
      "outputs": [],
      "stateMutability": "nonpayable",
      "type": "function"
    },
    {
      "inputs": [
        {
          "internalType": "bytes4",
          "name": "interfaceId",
          "type": "bytes4"
        }
      ],
      "name": "supportsInterface",
      "outputs": [
        {
          "internalType": "bool",
          "name": "",
          "type": "bool"
        }
      ],
      "stateMutability": "view",
      "type": "function",
      "constant": true
    },
    {
      "inputs": [],
      "name": "symbol",
      "outputs": [
        {
          "internalType": "string",
          "name": "",
          "type": "string"
        }
      ],
      "stateMutability": "view",
      "type": "function",
      "constant": true
    },
    {
      "inputs": [
        {
          "internalType": "uint256",
          "name": "tokenId",
          "type": "uint256"
        }
      ],
      "name": "tokenURI",
      "outputs": [
        {
          "internalType": "string",
          "name": "",
          "type": "string"
        }
      ],
      "stateMutability": "view",
      "type": "function",
      "constant": true
    },
    {
      "inputs": [
        {
          "internalType": "address",
          "name": "from",
          "type": "address"
        },
        {
          "internalType": "address",
          "name": "to",
          "type": "address"
        },
        {
          "internalType": "uint256",
          "name": "tokenId",
          "type": "uint256"
        }
      ],
      "name": "transferFrom",
      "outputs": [],
      "stateMutability": "nonpayable",
      "type": "function"
    },
    {
      "stateMutability": "payable",
      "type": "receive",
      "payable": true
    },
    {
      "inputs": [
        {
          "internalType": "string",
          "name": "_tokenURI",
          "type": "string"
        }
      ],
      "name": "addCanzone",
      "outputs": [],
      "stateMutability": "nonpayable",
      "type": "function"
    },
    {
      "inputs": [
        {
          "internalType": "uint256",
          "name": "tokenId",
          "type": "uint256"
        }
      ],
      "name": "exists",
      "outputs": [
        {
          "internalType": "bool",
          "name": "",
          "type": "bool"
        }
      ],
      "stateMutability": "view",
      "type": "function",
      "constant": true
    },
    {
      "inputs": [],
      "name": "getLastTokenId",
      "outputs": [
        {
          "internalType": "uint256",
          "name": "",
          "type": "uint256"
        }
      ],
      "stateMutability": "view",
      "type": "function",
      "constant": true
    },
    {
      "inputs": [],
      "name": "isPiattaforma",
      "outputs": [
        {
          "internalType": "bool",
          "name": "",
          "type": "bool"
        }
      ],
      "stateMutability": "view",
      "type": "function",
      "constant": true
    },
    {
      "inputs": [],
      "name": "getPropriBrani",
      "outputs": [
        {
          "internalType": "uint256[]",
          "name": "",
          "type": "uint256[]"
        }
      ],
      "stateMutability": "view",
      "type": "function",
      "constant": true
    },
    {
      "inputs": [
        {
          "internalType": "uint256",
          "name": "tokenId",
          "type": "uint256"
        }
      ],
      "name": "getAscolti",
      "outputs": [
        {
          "internalType": "uint256",
          "name": "",
          "type": "uint256"
        }
      ],
      "stateMutability": "view",
      "type": "function",
      "constant": true
    },
    {
      "inputs": [],
      "name": "depositaEth",
      "outputs": [
        {
          "internalType": "bool",
          "name": "",
          "type": "bool"
        }
      ],
      "stateMutability": "payable",
      "type": "function",
      "payable": true
    },
    {
      "inputs": [
        {
          "internalType": "uint256",
          "name": "tokenId",
          "type": "uint256"
        }
      ],
      "name": "addAscolti",
      "outputs": [],
      "stateMutability": "nonpayable",
      "type": "function"
    },
    {
      "inputs": [],
      "name": "ordinaClassifica",
      "outputs": [],
      "stateMutability": "nonpayable",
      "type": "function"
    },
    {
      "inputs": [],
      "name": "pagamentoClassifica",
      "outputs": [],
      "stateMutability": "payable",
      "type": "function",
      "payable": true
    },
    {
      "inputs": [
        {
          "internalType": "address payable",
          "name": "_to",
          "type": "address"
        },
        {
          "internalType": "uint256",
          "name": "amount",
          "type": "uint256"
        }
      ],
      "name": "inviaEther",
      "outputs": [],
      "stateMutability": "payable",
      "type": "function",
      "payable": true
    },
    {
      "inputs": [],
      "name": "ritiraEther",
      "outputs": [],
      "stateMutability": "payable",
      "type": "function",
      "payable": true
    },
    {
      "inputs": [
        {
          "internalType": "uint256",
          "name": "i",
          "type": "uint256"
        }
      ],
      "name": "getElemClass",
      "outputs": [
        {
          "internalType": "uint256",
          "name": "tokenId",
          "type": "uint256"
        },
        {
          "internalType": "uint256",
          "name": "listens",
          "type": "uint256"
        }
      ],
      "stateMutability": "view",
      "type": "function",
      "constant": true
    }
  ],
  "bytecode": "0x60806040526040518060400160405280600781526020017f46726565646f6d000000000000000000000000000000000000000000000000008152506040518060400160405280600481526020017f46524545000000000000000000000000000000000000000000000000000000008152508160009080519060200190620000889291906200017d565b508060019080519060200190620000a19291906200017d565b50505033600960006101000a81548173ffffffffffffffffffffffffffffffffffffffff021916908373ffffffffffffffffffffffffffffffffffffffff1602179055506301e1338042620000f7919062000266565b6008819055506000600a81905550600073a0855034d404e7e4be931ffdcdc4b28cfea15b5d90506001600b60008373ffffffffffffffffffffffffffffffffffffffff1673ffffffffffffffffffffffffffffffffffffffff16815260200190815260200160002060006101000a81548160ff0219169083151502179055505062000328565b8280546200018b90620002f2565b90600052602060002090601f016020900481019282620001af5760008555620001fb565b82601f10620001ca57805160ff1916838001178555620001fb565b82800160010185558215620001fb579182015b82811115620001fa578251825591602001919060010190620001dd565b5b5090506200020a91906200020e565b5090565b5b80821115620002295760008160009055506001016200020f565b5090565b6000819050919050565b7f4e487b7100000000000000000000000000000000000000000000000000000000600052601160045260246000fd5b600062000273826200022d565b915062000280836200022d565b9250827fffffffffffffffffffffffffffffffffffffffffffffffffffffffffffffffff03821115620002b857620002b762000237565b5b828201905092915050565b7f4e487b7100000000000000000000000000000000000000000000000000000000600052602260045260246000fd5b600060028204905060018216806200030b57607f821691505b60208210811415620003225762000321620002c3565b5b50919050565b613f1280620003386000396000f3fe6080604052600436106101bb5760003560e01c80636352211e116100ec5780639ab15ea51161008a578063b88d4fde11610064578063b88d4fde14610601578063c87b56dd1461062a578063d125010214610667578063e985e9c514610671576101c2565b80639ab15ea514610596578063a22cb465146105ad578063a509bde7146105d6576101c2565b806383c4c00d116100c657806383c4c00d146104ea578063876a41d514610515578063899cbd431461054057806395d89b411461056b576101c2565b80636352211e1461044757806370a082311461048457806381f345f8146104c1576101c2565b806321f6324f1161015957806342842e0e1161013357806342842e0e146103865780634477bdb7146103af5780634f558e79146103ec578063541faf1514610429576101c2565b806321f6324f1461030357806323b872dd1461031f5780633db32bb114610348576101c2565b8063095ea7b311610195578063095ea7b3146102695780630a5efc9f146102925780630c0f365a146102d057806318ecd9cc146102da576101c2565b806301ffc9a7146101c457806306fdde0314610201578063081812fc1461022c576101c2565b366101c257005b005b3480156101d057600080fd5b506101eb60048036038101906101e691906127c1565b6106ae565b6040516101f89190612809565b60405180910390f35b34801561020d57600080fd5b50610216610790565b60405161022391906128bd565b60405180910390f35b34801561023857600080fd5b50610253600480360381019061024e9190612915565b610822565b6040516102609190612983565b60405180910390f35b34801561027557600080fd5b50610290600480360381019061028b91906129ca565b6108a7565b005b34801561029e57600080fd5b506102b960048036038101906102b49190612915565b6109bf565b6040516102c7929190612a19565b60405180910390f35b6102d86109fc565b005b3480156102e657600080fd5b5061030160048036038101906102fc9190612b77565b610acd565b005b61031d60048036038101906103189190612bfe565b610cfb565b005b34801561032b57600080fd5b5061034660048036038101906103419190612c3e565b610dc2565b005b34801561035457600080fd5b5061036f600480360381019061036a9190612915565b610e22565b60405161037d929190612a19565b60405180910390f35b34801561039257600080fd5b506103ad60048036038101906103a89190612c3e565b610e56565b005b3480156103bb57600080fd5b506103d660048036038101906103d19190612915565b610e76565b6040516103e39190612c91565b60405180910390f35b3480156103f857600080fd5b50610413600480360381019061040e9190612915565b610e93565b6040516104209190612809565b60405180910390f35b610431610ea5565b60405161043e9190612809565b60405180910390f35b34801561045357600080fd5b5061046e60048036038101906104699190612915565b610f59565b60405161047b9190612983565b60405180910390f35b34801561049057600080fd5b506104ab60048036038101906104a69190612cac565b61100b565b6040516104b89190612c91565b60405180910390f35b3480156104cd57600080fd5b506104e860048036038101906104e39190612915565b6110c3565b005b3480156104f657600080fd5b506104ff6111bd565b60405161050c9190612c91565b60405180910390f35b34801561052157600080fd5b5061052a6111c7565b6040516105379190612d97565b60405180910390f35b34801561054c57600080fd5b5061055561125c565b6040516105629190612c91565b60405180910390f35b34801561057757600080fd5b50610580611262565b60405161058d91906128bd565b60405180910390f35b3480156105a257600080fd5b506105ab6112f4565b005b3480156105b957600080fd5b506105d460048036038101906105cf9190612de5565b611473565b005b3480156105e257600080fd5b506105eb611489565b6040516105f89190612809565b60405180910390f35b34801561060d57600080fd5b5061062860048036038101906106239190612ec6565b6114f5565b005b34801561063657600080fd5b50610651600480360381019061064c9190612915565b611557565b60405161065e91906128bd565b60405180910390f35b61066f6116a9565b005b34801561067d57600080fd5b5061069860048036038101906106939190612f49565b6118de565b6040516106a59190612809565b60405180910390f35b60007f80ac58cd000000000000000000000000000000000000000000000000000000007bffffffffffffffffffffffffffffffffffffffffffffffffffffffff1916827bffffffffffffffffffffffffffffffffffffffffffffffffffffffff1916148061077957507f5b5e139f000000000000000000000000000000000000000000000000000000007bffffffffffffffffffffffffffffffffffffffffffffffffffffffff1916827bffffffffffffffffffffffffffffffffffffffffffffffffffffffff1916145b80610789575061078882611972565b5b9050919050565b60606000805461079f90612fb8565b80601f01602080910402602001604051908101604052809291908181526020018280546107cb90612fb8565b80156108185780601f106107ed57610100808354040283529160200191610818565b820191906000526020600020905b8154815290600101906020018083116107fb57829003601f168201915b5050505050905090565b600061082d826119dc565b61086c576040517f08c379a00000000000000000000000000000000000000000000000000000000081526004016108639061305c565b60405180910390fd5b6004600083815260200190815260200160002060009054906101000a900473ffffffffffffffffffffffffffffffffffffffff169050919050565b60006108b282610f59565b90508073ffffffffffffffffffffffffffffffffffffffff168373ffffffffffffffffffffffffffffffffffffffff161415610923576040517f08c379a000000000000000000000000000000000000000000000000000000000815260040161091a906130ee565b60405180910390fd5b8073ffffffffffffffffffffffffffffffffffffffff16610942611a48565b73ffffffffffffffffffffffffffffffffffffffff16148061097157506109708161096b611a48565b6118de565b5b6109b0576040517f08c379a00000000000000000000000000000000000000000000000000000000081526004016109a790613180565b60405180910390fd5b6109ba8383611a50565b505050565b6000806000600f84815481106109d8576109d76131a0565b5b90600052602060002090600202019050806000015481600101549250925050915091565b6000600960009054906101000a900473ffffffffffffffffffffffffffffffffffffffff1673ffffffffffffffffffffffffffffffffffffffff1647604051610a4490613200565b60006040518083038185875af1925050503d8060008114610a81576040519150601f19603f3d011682016040523d82523d6000602084013e610a86565b606091505b5050905080610aca576040517f08c379a0000000000000000000000000000000000000000000000000000000008152600401610ac190613261565b60405180910390fd5b50565b600073ffffffffffffffffffffffffffffffffffffffff163373ffffffffffffffffffffffffffffffffffffffff161415610b3d576040517f08c379a0000000000000000000000000000000000000000000000000000000008152600401610b34906132cd565b60405180910390fd5b600d81604051610b4d9190613329565b908152602001604051809103902060009054906101000a900460ff1615610ba9576040517f08c379a0000000000000000000000000000000000000000000000000000000008152600401610ba09061338c565b60405180910390fd5b60076000815480929190610bbc906133db565b919050555060006007549050610bd23382611b09565b610bdc8183611b27565b6001600d83604051610bee9190613329565b908152602001604051809103902060006101000a81548160ff021916908315150217905550600c60003373ffffffffffffffffffffffffffffffffffffffff1673ffffffffffffffffffffffffffffffffffffffff1681526020019081526020016000208190806001815401808255809150506001900390600052602060002001600090919091909150556000604051806040016040528083815260200160008152509050600f81908060018154018082558091505060019003906000526020600020906002020160009091909190915060008201518160000155602082015181600101555050671bc16d674ec80000600a6000828254610cef9190613424565b92505081905550505050565b670de0b6b3a764000081610d0f919061347a565b905060008273ffffffffffffffffffffffffffffffffffffffff1682604051610d3790613200565b60006040518083038185875af1925050503d8060008114610d74576040519150601f19603f3d011682016040523d82523d6000602084013e610d79565b606091505b5050905080610dbd576040517f08c379a0000000000000000000000000000000000000000000000000000000008152600401610db490613520565b60405180910390fd5b505050565b610dd3610dcd611a48565b82611b9b565b610e12576040517f08c379a0000000000000000000000000000000000000000000000000000000008152600401610e09906135b2565b60405180910390fd5b610e1d838383611c79565b505050565b600f8181548110610e3257600080fd5b90600052602060002090600202016000915090508060000154908060010154905082565b610e71838383604051806020016040528060008152506114f5565b505050565b6000600e6000838152602001908152602001600020549050919050565b6000610e9e826119dc565b9050919050565b6000803073ffffffffffffffffffffffffffffffffffffffff1634604051610ecc90613200565b60006040518083038185875af1925050503d8060008114610f09576040519150601f19603f3d011682016040523d82523d6000602084013e610f0e565b606091505b5050905080610f52576040517f08c379a0000000000000000000000000000000000000000000000000000000008152600401610f4990613520565b60405180910390fd5b8091505090565b6000806002600084815260200190815260200160002060009054906101000a900473ffffffffffffffffffffffffffffffffffffffff169050600073ffffffffffffffffffffffffffffffffffffffff168173ffffffffffffffffffffffffffffffffffffffff161415611002576040517f08c379a0000000000000000000000000000000000000000000000000000000008152600401610ff990613644565b60405180910390fd5b80915050919050565b60008073ffffffffffffffffffffffffffffffffffffffff168273ffffffffffffffffffffffffffffffffffffffff16141561107c576040517f08c379a0000000000000000000000000000000000000000000000000000000008152600401611073906136d6565b60405180910390fd5b600360008373ffffffffffffffffffffffffffffffffffffffff1673ffffffffffffffffffffffffffffffffffffffff168152602001908152602001600020549050919050565b6000671bc16d674ec8000090506110d8611489565b156110e957670de0b6b3a764000090505b80600a60008282546110fb9190613424565b925050819055506001600e600084815260200190815260200160002060008282546111269190613424565b9250508190555060005b6007548110156111b85782600f828154811061114f5761114e6131a0565b5b90600052602060002090600202016000015414156111a5576001600f828154811061117d5761117c6131a0565b5b9060005260206000209060020201600101600082825461119d9190613424565b925050819055505b80806111b0906133db565b915050611130565b505050565b6000600754905090565b6060600c60003373ffffffffffffffffffffffffffffffffffffffff1673ffffffffffffffffffffffffffffffffffffffff16815260200190815260200160002080548060200260200160405190810160405280929190818152602001828054801561125257602002820191906000526020600020905b81548152602001906001019080831161123e575b5050505050905090565b60075481565b60606001805461127190612fb8565b80601f016020809104026020016040519081016040528092919081815260200182805461129d90612fb8565b80156112ea5780601f106112bf576101008083540402835291602001916112ea565b820191906000526020600020905b8154815290600101906020018083116112cd57829003601f168201915b5050505050905090565b6000600190505b600754811015611470576000600f828154811061131b5761131a6131a0565b5b9060005260206000209060020201604051806040016040529081600082015481526020016001820154815250509050600060018361135991906136f6565b90505b6000811015801561139557508160200151600f8281548110611381576113806131a0565b5b906000526020600020906002020160010154105b1561141557600f81815481106113ae576113ad6131a0565b5b9060005260206000209060020201600f6001836113cb9190613424565b815481106113dc576113db6131a0565b5b9060005260206000209060020201600082015481600001556001820154816001015590505060018161140e9190613424565b905061135c565b81600f6001836114259190613424565b81548110611436576114356131a0565b5b9060005260206000209060020201600082015181600001556020820151816001015590505050508080611468906133db565b9150506112fb565b50565b61148561147e611a48565b8383611ee0565b5050565b600060011515600b60003373ffffffffffffffffffffffffffffffffffffffff1673ffffffffffffffffffffffffffffffffffffffff16815260200190815260200160002060009054906101000a900460ff16151514156114ed57600190506114f2565b600090505b90565b611506611500611a48565b83611b9b565b611545576040517f08c379a000000000000000000000000000000000000000000000000000000000815260040161153c906135b2565b60405180910390fd5b6115518484848461204d565b50505050565b6060611562826119dc565b6115a1576040517f08c379a00000000000000000000000000000000000000000000000000000000081526004016115989061379c565b60405180910390fd5b60006006600084815260200190815260200160002080546115c190612fb8565b80601f01602080910402602001604051908101604052809291908181526020018280546115ed90612fb8565b801561163a5780601f1061160f5761010080835404028352916020019161163a565b820191906000526020600020905b81548152906001019060200180831161161d57829003601f168201915b50505050509050600061164b6120a9565b90506000815114156116615781925050506116a4565b60008251111561169657808260405160200161167e9291906137bc565b604051602081830303815290604052925050506116a4565b61169f846120c0565b925050505b919050565b600960009054906101000a900473ffffffffffffffffffffffffffffffffffffffff1673ffffffffffffffffffffffffffffffffffffffff163373ffffffffffffffffffffffffffffffffffffffff1614611739576040517f08c379a00000000000000000000000000000000000000000000000000000000081526004016117309061382c565b60405180910390fd5b60085442101561177e576040517f08c379a000000000000000000000000000000000000000000000000000000000815260040161177590613898565b60405180910390fd5b6117866112f4565b6064601e600a54611797919061347a565b6117a191906138e7565b600a60008282546117b291906136f6565b92505081905550600060646014600a546117cc919061347a565b6117d691906138e7565b905060005b6103e881101561183c57611829611816600f83815481106117ff576117fe6131a0565b5b906000526020600020906002020160000154610f59565b6103e88461182491906138e7565b610cfb565b8080611834906133db565b9150506117db565b5080600a600082825461184f91906136f6565b9250508190555060005b6007548110156118bc576118a9611894600f838154811061187d5761187c6131a0565b5b906000526020600020906002020160000154610f59565b600754600a546118a491906138e7565b610cfb565b80806118b4906133db565b915050611859565b506000600a819055506301e13380426118d59190613424565b60088190555050565b6000600560008473ffffffffffffffffffffffffffffffffffffffff1673ffffffffffffffffffffffffffffffffffffffff16815260200190815260200160002060008373ffffffffffffffffffffffffffffffffffffffff1673ffffffffffffffffffffffffffffffffffffffff16815260200190815260200160002060009054906101000a900460ff16905092915050565b60007f01ffc9a7000000000000000000000000000000000000000000000000000000007bffffffffffffffffffffffffffffffffffffffffffffffffffffffff1916827bffffffffffffffffffffffffffffffffffffffffffffffffffffffff1916149050919050565b60008073ffffffffffffffffffffffffffffffffffffffff166002600084815260200190815260200160002060009054906101000a900473ffffffffffffffffffffffffffffffffffffffff1673ffffffffffffffffffffffffffffffffffffffff1614159050919050565b600033905090565b816004600083815260200190815260200160002060006101000a81548173ffffffffffffffffffffffffffffffffffffffff021916908373ffffffffffffffffffffffffffffffffffffffff160217905550808273ffffffffffffffffffffffffffffffffffffffff16611ac383610f59565b73ffffffffffffffffffffffffffffffffffffffff167f8c5be1e5ebec7d5bd14f71427d1e84f3dd0314c0f7b2291e5b200ac8c7c3b92560405160405180910390a45050565b611b23828260405180602001604052806000815250612167565b5050565b611b30826119dc565b611b6f576040517f08c379a0000000000000000000000000000000000000000000000000000000008152600401611b669061398a565b60405180910390fd5b80600660008481526020019081526020016000209080519060200190611b969291906126b2565b505050565b6000611ba6826119dc565b611be5576040517f08c379a0000000000000000000000000000000000000000000000000000000008152600401611bdc90613a1c565b60405180910390fd5b6000611bf083610f59565b90508073ffffffffffffffffffffffffffffffffffffffff168473ffffffffffffffffffffffffffffffffffffffff161480611c5f57508373ffffffffffffffffffffffffffffffffffffffff16611c4784610822565b73ffffffffffffffffffffffffffffffffffffffff16145b80611c705750611c6f81856118de565b5b91505092915050565b8273ffffffffffffffffffffffffffffffffffffffff16611c9982610f59565b73ffffffffffffffffffffffffffffffffffffffff1614611cef576040517f08c379a0000000000000000000000000000000000000000000000000000000008152600401611ce690613aae565b60405180910390fd5b600073ffffffffffffffffffffffffffffffffffffffff168273ffffffffffffffffffffffffffffffffffffffff161415611d5f576040517f08c379a0000000000000000000000000000000000000000000000000000000008152600401611d5690613b40565b60405180910390fd5b611d6a8383836121c2565b611d75600082611a50565b6001600360008573ffffffffffffffffffffffffffffffffffffffff1673ffffffffffffffffffffffffffffffffffffffff1681526020019081526020016000206000828254611dc591906136f6565b925050819055506001600360008473ffffffffffffffffffffffffffffffffffffffff1673ffffffffffffffffffffffffffffffffffffffff1681526020019081526020016000206000828254611e1c9190613424565b92505081905550816002600083815260200190815260200160002060006101000a81548173ffffffffffffffffffffffffffffffffffffffff021916908373ffffffffffffffffffffffffffffffffffffffff160217905550808273ffffffffffffffffffffffffffffffffffffffff168473ffffffffffffffffffffffffffffffffffffffff167fddf252ad1be2c89b69c2b068fc378daa952ba7f163c4a11628f55a4df523b3ef60405160405180910390a4611edb8383836121c7565b505050565b8173ffffffffffffffffffffffffffffffffffffffff168373ffffffffffffffffffffffffffffffffffffffff161415611f4f576040517f08c379a0000000000000000000000000000000000000000000000000000000008152600401611f4690613bac565b60405180910390fd5b80600560008573ffffffffffffffffffffffffffffffffffffffff1673ffffffffffffffffffffffffffffffffffffffff16815260200190815260200160002060008473ffffffffffffffffffffffffffffffffffffffff1673ffffffffffffffffffffffffffffffffffffffff16815260200190815260200160002060006101000a81548160ff0219169083151502179055508173ffffffffffffffffffffffffffffffffffffffff168373ffffffffffffffffffffffffffffffffffffffff167f17307eab39ab6107e8899845ad3d59bd9653f200f220920489ca2b5937696c31836040516120409190612809565b60405180910390a3505050565b612058848484611c79565b612064848484846121cc565b6120a3576040517f08c379a000000000000000000000000000000000000000000000000000000000815260040161209a90613c3e565b60405180910390fd5b50505050565b606060405180602001604052806000815250905090565b60606120cb826119dc565b61210a576040517f08c379a000000000000000000000000000000000000000000000000000000000815260040161210190613cd0565b60405180910390fd5b60006121146120a9565b90506000815111612134576040518060200160405280600081525061215f565b8061213e84612354565b60405160200161214f9291906137bc565b6040516020818303038152906040525b915050919050565b61217183836124b5565b61217e60008484846121cc565b6121bd576040517f08c379a00000000000000000000000000000000000000000000000000000000081526004016121b490613c3e565b60405180910390fd5b505050565b505050565b505050565b60006121ed8473ffffffffffffffffffffffffffffffffffffffff1661268f565b15612347578373ffffffffffffffffffffffffffffffffffffffff1663150b7a02612216611a48565b8786866040518563ffffffff1660e01b81526004016122389493929190613d45565b6020604051808303816000875af192505050801561227457506040513d601f19601f820116820180604052508101906122719190613da6565b60015b6122f7573d80600081146122a4576040519150601f19603f3d011682016040523d82523d6000602084013e6122a9565b606091505b506000815114156122ef576040517f08c379a00000000000000000000000000000000000000000000000000000000081526004016122e690613c3e565b60405180910390fd5b805181602001fd5b63150b7a0260e01b7bffffffffffffffffffffffffffffffffffffffffffffffffffffffff1916817bffffffffffffffffffffffffffffffffffffffffffffffffffffffff19161491505061234c565b600190505b949350505050565b6060600082141561239c576040518060400160405280600181526020017f300000000000000000000000000000000000000000000000000000000000000081525090506124b0565b600082905060005b600082146123ce5780806123b7906133db565b915050600a826123c791906138e7565b91506123a4565b60008167ffffffffffffffff8111156123ea576123e9612a4c565b5b6040519080825280601f01601f19166020018201604052801561241c5781602001600182028036833780820191505090505b5090505b600085146124a95760018261243591906136f6565b9150600a856124449190613dd3565b60306124509190613424565b60f81b818381518110612466576124656131a0565b5b60200101907effffffffffffffffffffffffffffffffffffffffffffffffffffffffffffff1916908160001a905350600a856124a291906138e7565b9450612420565b8093505050505b919050565b600073ffffffffffffffffffffffffffffffffffffffff168273ffffffffffffffffffffffffffffffffffffffff161415612525576040517f08c379a000000000000000000000000000000000000000000000000000000000815260040161251c90613e50565b60405180910390fd5b61252e816119dc565b1561256e576040517f08c379a000000000000000000000000000000000000000000000000000000000815260040161256590613ebc565b60405180910390fd5b61257a600083836121c2565b6001600360008473ffffffffffffffffffffffffffffffffffffffff1673ffffffffffffffffffffffffffffffffffffffff16815260200190815260200160002060008282546125ca9190613424565b92505081905550816002600083815260200190815260200160002060006101000a81548173ffffffffffffffffffffffffffffffffffffffff021916908373ffffffffffffffffffffffffffffffffffffffff160217905550808273ffffffffffffffffffffffffffffffffffffffff16600073ffffffffffffffffffffffffffffffffffffffff167fddf252ad1be2c89b69c2b068fc378daa952ba7f163c4a11628f55a4df523b3ef60405160405180910390a461268b600083836121c7565b5050565b6000808273ffffffffffffffffffffffffffffffffffffffff163b119050919050565b8280546126be90612fb8565b90600052602060002090601f0160209004810192826126e05760008555612727565b82601f106126f957805160ff1916838001178555612727565b82800160010185558215612727579182015b8281111561272657825182559160200191906001019061270b565b5b5090506127349190612738565b5090565b5b80821115612751576000816000905550600101612739565b5090565b6000604051905090565b600080fd5b600080fd5b60007fffffffff0000000000000000000000000000000000000000000000000000000082169050919050565b61279e81612769565b81146127a957600080fd5b50565b6000813590506127bb81612795565b92915050565b6000602082840312156127d7576127d661275f565b5b60006127e5848285016127ac565b91505092915050565b60008115159050919050565b612803816127ee565b82525050565b600060208201905061281e60008301846127fa565b92915050565b600081519050919050565b600082825260208201905092915050565b60005b8381101561285e578082015181840152602081019050612843565b8381111561286d576000848401525b50505050565b6000601f19601f8301169050919050565b600061288f82612824565b612899818561282f565b93506128a9818560208601612840565b6128b281612873565b840191505092915050565b600060208201905081810360008301526128d78184612884565b905092915050565b6000819050919050565b6128f2816128df565b81146128fd57600080fd5b50565b60008135905061290f816128e9565b92915050565b60006020828403121561292b5761292a61275f565b5b600061293984828501612900565b91505092915050565b600073ffffffffffffffffffffffffffffffffffffffff82169050919050565b600061296d82612942565b9050919050565b61297d81612962565b82525050565b60006020820190506129986000830184612974565b92915050565b6129a781612962565b81146129b257600080fd5b50565b6000813590506129c48161299e565b92915050565b600080604083850312156129e1576129e061275f565b5b60006129ef858286016129b5565b9250506020612a0085828601612900565b9150509250929050565b612a13816128df565b82525050565b6000604082019050612a2e6000830185612a0a565b612a3b6020830184612a0a565b9392505050565b600080fd5b600080fd5b7f4e487b7100000000000000000000000000000000000000000000000000000000600052604160045260246000fd5b612a8482612873565b810181811067ffffffffffffffff82111715612aa357612aa2612a4c565b5b80604052505050565b6000612ab6612755565b9050612ac28282612a7b565b919050565b600067ffffffffffffffff821115612ae257612ae1612a4c565b5b612aeb82612873565b9050602081019050919050565b82818337600083830152505050565b6000612b1a612b1584612ac7565b612aac565b905082815260208101848484011115612b3657612b35612a47565b5b612b41848285612af8565b509392505050565b600082601f830112612b5e57612b5d612a42565b5b8135612b6e848260208601612b07565b91505092915050565b600060208284031215612b8d57612b8c61275f565b5b600082013567ffffffffffffffff811115612bab57612baa612764565b5b612bb784828501612b49565b91505092915050565b6000612bcb82612942565b9050919050565b612bdb81612bc0565b8114612be657600080fd5b50565b600081359050612bf881612bd2565b92915050565b60008060408385031215612c1557612c1461275f565b5b6000612c2385828601612be9565b9250506020612c3485828601612900565b9150509250929050565b600080600060608486031215612c5757612c5661275f565b5b6000612c65868287016129b5565b9350506020612c76868287016129b5565b9250506040612c8786828701612900565b9150509250925092565b6000602082019050612ca66000830184612a0a565b92915050565b600060208284031215612cc257612cc161275f565b5b6000612cd0848285016129b5565b91505092915050565b600081519050919050565b600082825260208201905092915050565b6000819050602082019050919050565b612d0e816128df565b82525050565b6000612d208383612d05565b60208301905092915050565b6000602082019050919050565b6000612d4482612cd9565b612d4e8185612ce4565b9350612d5983612cf5565b8060005b83811015612d8a578151612d718882612d14565b9750612d7c83612d2c565b925050600181019050612d5d565b5085935050505092915050565b60006020820190508181036000830152612db18184612d39565b905092915050565b612dc2816127ee565b8114612dcd57600080fd5b50565b600081359050612ddf81612db9565b92915050565b60008060408385031215612dfc57612dfb61275f565b5b6000612e0a858286016129b5565b9250506020612e1b85828601612dd0565b9150509250929050565b600067ffffffffffffffff821115612e4057612e3f612a4c565b5b612e4982612873565b9050602081019050919050565b6000612e69612e6484612e25565b612aac565b905082815260208101848484011115612e8557612e84612a47565b5b612e90848285612af8565b509392505050565b600082601f830112612ead57612eac612a42565b5b8135612ebd848260208601612e56565b91505092915050565b60008060008060808587031215612ee057612edf61275f565b5b6000612eee878288016129b5565b9450506020612eff878288016129b5565b9350506040612f1087828801612900565b925050606085013567ffffffffffffffff811115612f3157612f30612764565b5b612f3d87828801612e98565b91505092959194509250565b60008060408385031215612f6057612f5f61275f565b5b6000612f6e858286016129b5565b9250506020612f7f858286016129b5565b9150509250929050565b7f4e487b7100000000000000000000000000000000000000000000000000000000600052602260045260246000fd5b60006002820490506001821680612fd057607f821691505b60208210811415612fe457612fe3612f89565b5b50919050565b7f4552433732313a20617070726f76656420717565727920666f72206e6f6e657860008201527f697374656e7420746f6b656e0000000000000000000000000000000000000000602082015250565b6000613046602c8361282f565b915061305182612fea565b604082019050919050565b6000602082019050818103600083015261307581613039565b9050919050565b7f4552433732313a20617070726f76616c20746f2063757272656e74206f776e6560008201527f7200000000000000000000000000000000000000000000000000000000000000602082015250565b60006130d860218361282f565b91506130e38261307c565b604082019050919050565b60006020820190508181036000830152613107816130cb565b9050919050565b7f4552433732313a20617070726f76652063616c6c6572206973206e6f74206f7760008201527f6e6572206e6f7220617070726f76656420666f7220616c6c0000000000000000602082015250565b600061316a60388361282f565b91506131758261310e565b604082019050919050565b600060208201905081810360008301526131998161315d565b9050919050565b7f4e487b7100000000000000000000000000000000000000000000000000000000600052603260045260246000fd5b600081905092915050565b50565b60006131ea6000836131cf565b91506131f5826131da565b600082019050919050565b600061320b826131dd565b9150819050919050565b7f5472616e73666572204661696c65640000000000000000000000000000000000600082015250565b600061324b600f8361282f565b915061325682613215565b602082019050919050565b6000602082019050818103600083015261327a8161323e565b9050919050565b7f696e646972697a7a6f206e6f6e2076616c69646f000000000000000000000000600082015250565b60006132b760148361282f565b91506132c282613281565b602082019050919050565b600060208201905081810360008301526132e6816132aa565b9050919050565b600081905092915050565b600061330382612824565b61330d81856132ed565b935061331d818560208601612840565b80840191505092915050565b600061333582846132f8565b915081905092915050565b7f555249206573697374656e746500000000000000000000000000000000000000600082015250565b6000613376600d8361282f565b915061338182613340565b602082019050919050565b600060208201905081810360008301526133a581613369565b9050919050565b7f4e487b7100000000000000000000000000000000000000000000000000000000600052601160045260246000fd5b60006133e6826128df565b91507fffffffffffffffffffffffffffffffffffffffffffffffffffffffffffffffff821415613419576134186133ac565b5b600182019050919050565b600061342f826128df565b915061343a836128df565b9250827fffffffffffffffffffffffffffffffffffffffffffffffffffffffffffffffff0382111561346f5761346e6133ac565b5b828201905092915050565b6000613485826128df565b9150613490836128df565b9250817fffffffffffffffffffffffffffffffffffffffffffffffffffffffffffffffff04831182151516156134c9576134c86133ac565b5b828202905092915050565b7f4661696c656420746f2073656e64204574686572000000000000000000000000600082015250565b600061350a60148361282f565b9150613515826134d4565b602082019050919050565b60006020820190508181036000830152613539816134fd565b9050919050565b7f4552433732313a207472616e736665722063616c6c6572206973206e6f74206f60008201527f776e6572206e6f7220617070726f766564000000000000000000000000000000602082015250565b600061359c60318361282f565b91506135a782613540565b604082019050919050565b600060208201905081810360008301526135cb8161358f565b9050919050565b7f4552433732313a206f776e657220717565727920666f72206e6f6e657869737460008201527f656e7420746f6b656e0000000000000000000000000000000000000000000000602082015250565b600061362e60298361282f565b9150613639826135d2565b604082019050919050565b6000602082019050818103600083015261365d81613621565b9050919050565b7f4552433732313a2062616c616e636520717565727920666f7220746865207a6560008201527f726f206164647265737300000000000000000000000000000000000000000000602082015250565b60006136c0602a8361282f565b91506136cb82613664565b604082019050919050565b600060208201905081810360008301526136ef816136b3565b9050919050565b6000613701826128df565b915061370c836128df565b92508282101561371f5761371e6133ac565b5b828203905092915050565b7f45524337323155524953746f726167653a2055524920717565727920666f722060008201527f6e6f6e6578697374656e7420746f6b656e000000000000000000000000000000602082015250565b600061378660318361282f565b91506137918261372a565b604082019050919050565b600060208201905081810360008301526137b581613779565b9050919050565b60006137c882856132f8565b91506137d482846132f8565b91508190509392505050565b7f4e6f6e2073656920696c2070726f70726965746172696f000000000000000000600082015250565b600061381660178361282f565b9150613821826137e0565b602082019050919050565b6000602082019050818103600083015261384581613809565b9050919050565b7f4e6f6e20616e6f63726121210000000000000000000000000000000000000000600082015250565b6000613882600c8361282f565b915061388d8261384c565b602082019050919050565b600060208201905081810360008301526138b181613875565b9050919050565b7f4e487b7100000000000000000000000000000000000000000000000000000000600052601260045260246000fd5b60006138f2826128df565b91506138fd836128df565b92508261390d5761390c6138b8565b5b828204905092915050565b7f45524337323155524953746f726167653a2055524920736574206f66206e6f6e60008201527f6578697374656e7420746f6b656e000000000000000000000000000000000000602082015250565b6000613974602e8361282f565b915061397f82613918565b604082019050919050565b600060208201905081810360008301526139a381613967565b9050919050565b7f4552433732313a206f70657261746f7220717565727920666f72206e6f6e657860008201527f697374656e7420746f6b656e0000000000000000000000000000000000000000602082015250565b6000613a06602c8361282f565b9150613a11826139aa565b604082019050919050565b60006020820190508181036000830152613a35816139f9565b9050919050565b7f4552433732313a207472616e736665722066726f6d20696e636f72726563742060008201527f6f776e6572000000000000000000000000000000000000000000000000000000602082015250565b6000613a9860258361282f565b9150613aa382613a3c565b604082019050919050565b60006020820190508181036000830152613ac781613a8b565b9050919050565b7f4552433732313a207472616e7366657220746f20746865207a65726f2061646460008201527f7265737300000000000000000000000000000000000000000000000000000000602082015250565b6000613b2a60248361282f565b9150613b3582613ace565b604082019050919050565b60006020820190508181036000830152613b5981613b1d565b9050919050565b7f4552433732313a20617070726f766520746f2063616c6c657200000000000000600082015250565b6000613b9660198361282f565b9150613ba182613b60565b602082019050919050565b60006020820190508181036000830152613bc581613b89565b9050919050565b7f4552433732313a207472616e7366657220746f206e6f6e20455243373231526560008201527f63656976657220696d706c656d656e7465720000000000000000000000000000602082015250565b6000613c2860328361282f565b9150613c3382613bcc565b604082019050919050565b60006020820190508181036000830152613c5781613c1b565b9050919050565b7f4552433732314d657461646174613a2055524920717565727920666f72206e6f60008201527f6e6578697374656e7420746f6b656e0000000000000000000000000000000000602082015250565b6000613cba602f8361282f565b9150613cc582613c5e565b604082019050919050565b60006020820190508181036000830152613ce981613cad565b9050919050565b600081519050919050565b600082825260208201905092915050565b6000613d1782613cf0565b613d218185613cfb565b9350613d31818560208601612840565b613d3a81612873565b840191505092915050565b6000608082019050613d5a6000830187612974565b613d676020830186612974565b613d746040830185612a0a565b8181036060830152613d868184613d0c565b905095945050505050565b600081519050613da081612795565b92915050565b600060208284031215613dbc57613dbb61275f565b5b6000613dca84828501613d91565b91505092915050565b6000613dde826128df565b9150613de9836128df565b925082613df957613df86138b8565b5b828206905092915050565b7f4552433732313a206d696e7420746f20746865207a65726f2061646472657373600082015250565b6000613e3a60208361282f565b9150613e4582613e04565b602082019050919050565b60006020820190508181036000830152613e6981613e2d565b9050919050565b7f4552433732313a20746f6b656e20616c7265616479206d696e74656400000000600082015250565b6000613ea6601c8361282f565b9150613eb182613e70565b602082019050919050565b60006020820190508181036000830152613ed581613e99565b905091905056fea26469706673582212203167202fbee67a011950d136972f6fdb86dc777704c237e1ee5bad8bf8890ccf64736f6c634300080c0033",
  "immutableReferences": {},
  "source": "// SPDX-License-Identifier: GPL-3.0-or-later\npragma solidity >= 0.8.0;\n\nimport \"@openzeppelin/contracts/token/ERC721/ERC721.sol\";\nimport \"@openzeppelin/contracts/token/ERC721/extensions/ERC721URIStorage.sol\";\nimport \"@openzeppelin/contracts/utils/Counters.sol\";\n\ncontract Freedom is ERC721URIStorage {\n\n  uint256 public counterCanzoni;\n  uint Anno;\n  address payable owner;\n  uint balanceAnnuale;\n\n  struct Ascolti{\n     uint tokenId;\n     uint listens;\n   }\n\n  mapping (address => bool) piattaforme;\n  mapping (address => uint[]) proprietari;\n  mapping (string => bool) tokenURIExists;\n  mapping (uint => uint) ascolti;\n  Ascolti[] public classifica;\n\n  constructor() payable ERC721(\"Freedom\", \"FREE\") {\n    owner = payable(msg.sender);\n    Anno = block.timestamp + 365 days;\n    balanceAnnuale = 0;\n\n    address spotify = address(0xA0855034D404e7e4be931FFDcDC4B28CFEa15b5D);\n    piattaforme[spotify] = true;\n  }\n\n  function addCanzone(string  memory _tokenURI) public {\n    // controlla che l'indirizzo del chiamante  diverso da 0\n    require(msg.sender != address(0), \"indirizzo non valido\");\n    // controlla se il token uri gia esiste\n    require(!tokenURIExists[_tokenURI], \"URI esistente\");\n\n    \n    // require(!pagamento( payable(address(this))), \"Pagamento non andato a buon fine\");\n\n    \n    //incrementa il contatore delle canzoni\n    counterCanzoni++;\n    // crea la canzone come nft\n    uint256 tokenId = counterCanzoni;\n    _safeMint(msg.sender,tokenId);\n    //imposta tokenURI\n    _setTokenURI(tokenId,_tokenURI);\n    tokenURIExists[_tokenURI] = true;\n    //inserisce la canzone al suo proprietario\n    proprietari[msg.sender].push(tokenId);\n    //setta a 0 gli ascolti\n    Ascolti memory newAscolti = Ascolti(tokenId,0);\n    classifica.push(newAscolti);\n    balanceAnnuale += 2 ether;\n      \n  }\n\n   \n\n  function exists (uint256 tokenId) public view returns (bool) {\n    return _exists(tokenId);\n  }\n\n  function getLastTokenId() public view returns(uint256){\n    return counterCanzoni;\n  }\n\n  function isPiattaforma() public view returns (bool) {\n    if(piattaforme[msg.sender] == true) return true;\n    else return false;\n  }\n\n  function getPropriBrani() public view returns(uint[] memory){\n    return proprietari[msg.sender];\n  }\n\n  function getAscolti(uint256 tokenId) public view returns(uint){\n    return ascolti[tokenId];\n  }\n\n  function depositaEth() public payable returns (bool) {\n      // Call returns a boolean value indicating success or failure.\n      // This is the current recommended method to use.\n      (bool sent, ) = payable(address(this)).call{value: msg.value}(\"\");\n      require(sent, \"Failed to send Ether\");\n      return sent;\n  }\n\n  function addAscolti(uint256 tokenId) external{\n    // ottieni ascolti\n    uint costo = 2 ether;\n    if (isPiattaforma()){\n      costo = 1 ether;\n    }\n    balanceAnnuale += costo;\n    ascolti[tokenId] += 1;\n    for (uint256 i= 0; i < counterCanzoni; i++){\n      if (classifica[i].tokenId == tokenId){\n        classifica[i].listens += 1;\n      }\n    }\n  }\n\n  function ordinaClassifica() public{ //private\n    for (uint256 i = 1;i<counterCanzoni;i++){\n      Ascolti memory value= classifica[i];\n      uint256 j = i-1;\n      while (j>= 0 && classifica[j].listens < value.listens ){\n        classifica[j+1] = classifica[j];\n        j = j+1;\n      }\n      classifica[j+1] = value;\n    }\n  }\n\n  function pagamentoClassifica() external payable{\n    require(msg.sender == owner,\"Non sei il proprietario\");\n    require(block.timestamp >= Anno, \"Non anocra!!\");\n    ordinaClassifica();\n    //30% rimane allo SC\n    balanceAnnuale -= balanceAnnuale * 30/100 ;\n    //20% che verr spartito tra i top 1000\n    uint256 value = balanceAnnuale * 20/100 ;   \n    for (uint256 i = 0; i< 1000;i++){\n      inviaEther(payable(ownerOf(classifica[i].tokenId)),value/1000);\n    }\n    //il resto spartito tra tutti gli altri\n    balanceAnnuale -= value;\n    for (uint256 i = 0; i< counterCanzoni;i++){\n      inviaEther(payable(ownerOf(classifica[i].tokenId)),balanceAnnuale/counterCanzoni);\n    }\n    balanceAnnuale = 0;\n    Anno =block.timestamp + 365 days;\n  }\n\n  function inviaEther(address payable _to, uint amount) public payable{ \n       amount = amount * 1000000000000000000;\n      (bool sent, ) = _to.call{value: amount}(\"\");\n      require(sent, \"Failed to send Ether\");\n  }\n\n \n\n  function ritiraEther() external payable{\n    (bool inviato, ) = owner.call{value: (address(this).balance)}(\"\"); \n    require(inviato, \"Transfer Failed\");\n  }\n\n  fallback() external payable {}\n\n  receive() external payable {}\n\n  /*function getClassifica(uint _index) public view returns(Ascolti[] memory){\n    return classifica;\n  }*/\n\n  function getElemClass(uint i) public view returns (uint tokenId, uint listens){\n    Ascolti storage todo = classifica[i];\n    return (todo.tokenId, todo.listens);\n  }\n\n    \n}",
  "sourcePath": "E:\\Progetti\\Blockchain\\HealtyChian\\contracts\\Freedom.sol",
  "compiler": {
    "name": "solc",
    "version": "0.8.12+commit.f00d7308.Emscripten.clang"
  },
  "schemaVersion": "3.4.4",
  "updatedAt": "2022-02-21T08:37:38.089Z",
  "networkType": "ethereum",
  "devdoc": {
    "kind": "dev",
    "methods": {
      "approve(address,uint256)": {
        "details": "See {IERC721-approve}."
      },
      "balanceOf(address)": {
        "details": "See {IERC721-balanceOf}."
      },
      "getApproved(uint256)": {
        "details": "See {IERC721-getApproved}."
      },
      "isApprovedForAll(address,address)": {
        "details": "See {IERC721-isApprovedForAll}."
      },
      "name()": {
        "details": "See {IERC721Metadata-name}."
      },
      "ownerOf(uint256)": {
        "details": "See {IERC721-ownerOf}."
      },
      "safeTransferFrom(address,address,uint256)": {
        "details": "See {IERC721-safeTransferFrom}."
      },
      "safeTransferFrom(address,address,uint256,bytes)": {
        "details": "See {IERC721-safeTransferFrom}."
      },
      "setApprovalForAll(address,bool)": {
        "details": "See {IERC721-setApprovalForAll}."
      },
      "supportsInterface(bytes4)": {
        "details": "See {IERC165-supportsInterface}."
      },
      "symbol()": {
        "details": "See {IERC721Metadata-symbol}."
      },
      "tokenURI(uint256)": {
        "details": "See {IERC721Metadata-tokenURI}."
      },
      "transferFrom(address,address,uint256)": {
        "details": "See {IERC721-transferFrom}."
      }
    },
    "version": 1
  },
  "userdoc": {
    "kind": "user",
    "methods": {},
    "version": 1
  }
}