{
  "contractName": "prova",
  "abi": [
    {
      "constant": true,
      "inputs": [
        {
          "name": "",
          "type": "uint256"
        }
      ],
      "name": "allCanzoni",
      "outputs": [
        {
          "name": "id",
          "type": "uint256"
        },
        {
          "name": "name",
          "type": "string"
        },
        {
          "name": "currentOwner",
          "type": "address"
        },
        {
          "name": "listens",
          "type": "uint256"
        }
      ],
      "payable": false,
      "stateMutability": "view",
      "type": "function"
    },
    {
      "inputs": [],
      "payable": true,
      "stateMutability": "payable",
      "type": "constructor"
    },
    {
      "constant": false,
      "inputs": [],
      "name": "Registrati",
      "outputs": [],
      "payable": true,
      "stateMutability": "payable",
      "type": "function"
    },
    {
      "constant": false,
      "inputs": [],
      "name": "AddPiattaforme",
      "outputs": [],
      "payable": false,
      "stateMutability": "nonpayable",
      "type": "function"
    },
    {
      "constant": false,
      "inputs": [
        {
          "name": "_name",
          "type": "string"
        }
      ],
      "name": "addCanzone",
      "outputs": [],
      "payable": false,
      "stateMutability": "nonpayable",
      "type": "function"
    },
    {
      "constant": false,
      "inputs": [
        {
          "name": "id",
          "type": "uint256"
        },
        {
          "name": "listens",
          "type": "uint256"
        }
      ],
      "name": "addAscolti",
      "outputs": [],
      "payable": false,
      "stateMutability": "nonpayable",
      "type": "function"
    },
    {
      "constant": false,
      "inputs": [],
      "name": "pagamentoClassifica",
      "outputs": [],
      "payable": true,
      "stateMutability": "payable",
      "type": "function"
    },
    {
      "constant": false,
      "inputs": [],
      "name": "pagaUtilizzoCanzone",
      "outputs": [],
      "payable": true,
      "stateMutability": "payable",
      "type": "function"
    }
  ],
  "bytecode": "0x608060405233600260006101000a81548173ffffffffffffffffffffffffffffffffffffffff021916908373ffffffffffffffffffffffffffffffffffffffff1602179055506301e1338042016001819055506000600381905550610d92806100696000396000f3fe6080604052600436106100705760003560e01c8063d12501021161004e578063d12501021461011c578063d217683d14610126578063e5fff4011461021b578063f5008e891461022557610070565b806318ecd9cc14610075578063464de4ad146100fb5780636b8f27c814610112575b600080fd5b34801561008157600080fd5b506100f96004803603602081101561009857600080fd5b81019080803590602001906401000000008111156100b557600080fd5b8201836020820111156100c757600080fd5b803590602001918460018302840111640100000000831117156100e957600080fd5b909192939192939050505061026a565b005b34801561010757600080fd5b50610110610498565b005b61011a6104f2565b005b610124610511565b005b34801561013257600080fd5b5061015f6004803603602081101561014957600080fd5b81019080803590602001909291905050506105bf565b60405180858152602001806020018473ffffffffffffffffffffffffffffffffffffffff1673ffffffffffffffffffffffffffffffffffffffff168152602001838152602001828103825285818151815260200191508051906020019080838360005b838110156101dd5780820151818401526020810190506101c2565b50505050905090810190601f16801561020a5780820380516001836020036101000a031916815260200191505b509550505050505060405180910390f35b6102236106a7565b005b34801561023157600080fd5b506102686004803603604081101561024857600080fd5b810190808035906020019092919080359060200190929190505050610701565b005b600073ffffffffffffffffffffffffffffffffffffffff163373ffffffffffffffffffffffffffffffffffffffff1614156102a457600080fd5b60011515600560003373ffffffffffffffffffffffffffffffffffffffff1673ffffffffffffffffffffffffffffffffffffffff16815260200190815260200160002060009054906101000a900460ff1615151461036a576040517f08c379a00000000000000000000000000000000000000000000000000000000081526004018080602001828103825260128152602001807f4e6f6e20736569207265676973747261746f000000000000000000000000000081525060200191505060405180910390fd5b6000808154809291906001019190505550610383610bfc565b6040518060800160405280600054815260200184848080601f016020809104026020016040519081016040528093929190818152602001838380828437600081840152601f19601f8201169050808301925050505050505081526020013373ffffffffffffffffffffffffffffffffffffffff1681526020016000815250905080600460008054815260200190815260200160002060008201518160000155602082015181600101908051906020019061043e929190610c3a565b5060408201518160020160006101000a81548173ffffffffffffffffffffffffffffffffffffffff021916908373ffffffffffffffffffffffffffffffffffffffff16021790555060608201518160030155905050505050565b6001600660003373ffffffffffffffffffffffffffffffffffffffff1673ffffffffffffffffffffffffffffffffffffffff16815260200190815260200160002060006101000a81548160ff021916908315150217905550565b6000666a94d74f43000090508060036000828254019250508190555050565b60015442101561052057600080fd5b6105286107e6565b6064601e600354028161053757fe5b04600360008282540392505081905550600060646014600354028161055857fe5b04905060008090505b6103e8811015610578578080600101915050610561565b508060036000828254039250508190555060008090505b6000548110156105a657808060010191505061058f565b5060006003819055506301e13380420160018190555050565b6004602052806000526040600020600091509050806000015490806001018054600181600116156101000203166002900480601f0160208091040260200160405190810160405280929190818152602001828054600181600116156101000203166002900480156106715780601f1061064657610100808354040283529160200191610671565b820191906000526020600020905b81548152906001019060200180831161065457829003601f168201915b5050505050908060020160009054906101000a900473ffffffffffffffffffffffffffffffffffffffff16908060030154905084565b6001600560003373ffffffffffffffffffffffffffffffffffffffff1673ffffffffffffffffffffffffffffffffffffffff16815260200190815260200160002060006101000a81548160ff021916908315150217905550565b60011515600660003373ffffffffffffffffffffffffffffffffffffffff1673ffffffffffffffffffffffffffffffffffffffff16815260200190815260200160002060009054906101000a900460ff161515146107c7576040517f08c379a00000000000000000000000000000000000000000000000000000000081526004018080602001828103825260128152602001807f4e6f6e20736569207265676973747261746f000000000000000000000000000081525060200191505060405180910390fd5b8060046000848152602001908152602001600020600301819055505050565b6000600190505b6000548110156108d857600460008281526020019081526020016000206007828154811061081757fe5b90600052602060002090600402016000820154816000015560018201816001019080546001816001161561010002031660029004610856929190610cba565b506002820160009054906101000a900473ffffffffffffffffffffffffffffffffffffffff168160020160006101000a81548173ffffffffffffffffffffffffffffffffffffffff021916908373ffffffffffffffffffffffffffffffffffffffff1602179055506003820154816003015590505080806001019150506107ed565b506000600190505b600054811015610bf9576108f2610bfc565b600782815481106108ff57fe5b906000526020600020906004020160405180608001604052908160008201548152602001600182018054600181600116156101000203166002900480601f0160208091040260200160405190810160405280929190818152602001828054600181600116156101000203166002900480156109bb5780601f10610990576101008083540402835291602001916109bb565b820191906000526020600020905b81548152906001019060200180831161099e57829003601f168201915b505050505081526020016002820160009054906101000a900473ffffffffffffffffffffffffffffffffffffffff1673ffffffffffffffffffffffffffffffffffffffff1673ffffffffffffffffffffffffffffffffffffffff168152602001600382015481525050905060006001830390505b60008110158015610a615750816060015160078281548110610a4d57fe5b906000526020600020906004020160030154115b15610b505760078181548110610a7357fe5b906000526020600020906004020160076001830181548110610a9157fe5b90600052602060002090600402016000820154816000015560018201816001019080546001816001161561010002031660029004610ad0929190610cba565b506002820160009054906101000a900473ffffffffffffffffffffffffffffffffffffffff168160020160006101000a81548173ffffffffffffffffffffffffffffffffffffffff021916908373ffffffffffffffffffffffffffffffffffffffff16021790555060038201548160030155905050600181039050610a2f565b8160076001830181548110610b6157fe5b9060005260206000209060040201600082015181600001556020820151816001019080519060200190610b95929190610c3a565b5060408201518160020160006101000a81548173ffffffffffffffffffffffffffffffffffffffff021916908373ffffffffffffffffffffffffffffffffffffffff16021790555060608201518160030155905050505080806001019150506108e0565b50565b60405180608001604052806000815260200160608152602001600073ffffffffffffffffffffffffffffffffffffffff168152602001600081525090565b828054600181600116156101000203166002900490600052602060002090601f016020900481019282601f10610c7b57805160ff1916838001178555610ca9565b82800160010185558215610ca9579182015b82811115610ca8578251825591602001919060010190610c8d565b5b509050610cb69190610d41565b5090565b828054600181600116156101000203166002900490600052602060002090601f016020900481019282601f10610cf35780548555610d30565b82800160010185558215610d3057600052602060002091601f016020900482015b82811115610d2f578254825591600101919060010190610d14565b5b509050610d3d9190610d41565b5090565b610d6391905b80821115610d5f576000816000905550600101610d47565b5090565b9056fea165627a7a723058200e6d5febea55925a1d922f4aec5a0386317c08991eb3baf3063fecd369637c970029",
  "source": "// SPDX-License-Identifier: GPL-3.0-or-later\npragma solidity >= 0.5.8;\n\ncontract prova{\nuint256 counterCanzoni;\nuint Anno;\naddress owner;\nuint balanceAnnuale;\n\nstruct Canzone {\nuint256 id;\nstring name;\naddress currentOwner;\nuint256 listens;\n}\n\n// ogni canzone ha un suo proprietario\nmapping(uint256 => Canzone) public allCanzoni;\nmapping (address => bool) utentiRegistrati;\nmapping (address => bool) piattaforme;\nCanzone[] classifica;\n\nconstructor() payable public{\nowner = msg.sender;\nAnno = block.timestamp + 365 days;\nbalanceAnnuale = 0;\n}\n\nfunction Registrati() external payable{ \nutentiRegistrati[msg.sender] = true;\n//pagamento\n//transferFrom(msg.sender,owner,300);\n\n}\n\nfunction AddPiattaforme() external{\n  piattaforme[msg.sender] = true;\n\n}\n\n// add canzone\nfunction addCanzone(string calldata _name) external {\n// controlla che l'indirizzo del chiamante è diverso da 0\nrequire(msg.sender != address(0));\n//controlla che il chiamante sia un utente registrato\nrequire(utentiRegistrati[msg.sender] == true, \"Non sei registrato\");\n// incrementa il contatore delle canzoni\ncounterCanzoni++; \n// crea la canzone\nCanzone memory newCanzone = Canzone(counterCanzoni, _name, msg.sender,0);\nallCanzoni[counterCanzoni] = newCanzone;\n}\n\nfunction addAscolti(uint256 id, uint256 listens) external{\n  // ottieni ascolti\n  require(piattaforme[msg.sender] == true, \"Non sei registrato\");\n  allCanzoni[id].listens = listens;\n  \n}\n\nfunction ordinaClassifica() private{\n  for (uint256 i = 1;i<counterCanzoni;i++){\n      classifica[i] = allCanzoni[i];\n  }\n  for (uint256 i = 1;i<counterCanzoni;i++){\n    Canzone memory value= classifica[i];\n    uint256 j = i-1;\n    while (j>= 0 && classifica[j].listens> value.listens){\n      classifica[j+1] = classifica[j];\n      j = j-1;\n    }\n    classifica[j+1] = value;\n  }\n}\n\nfunction pagamentoClassifica() payable public {\nrequire(block.timestamp >= Anno);\nordinaClassifica();\n//30% a noi\nbalanceAnnuale -= balanceAnnuale * 30/100 ;\n//20% che verrà spartito tra i top 1000\nuint256 value = balanceAnnuale * 20/100 ; \nfor (uint256 i = 0; i< 1000;i++){\n//20% ai primi mille\n//transferFrom(owner,classifica[i].currentOwner,value/1000);\n//payable(classifica[i].currentOwner).transfer(value/1000);\n}\n//il resto spertito tra tutti gli altri\nbalanceAnnuale -= value;\nfor (uint256 i = 0; i< counterCanzoni;i++){\n//transferFrom(owner,classifica[i].currentOwner,balanceAnnuale/counterCanzoni);\n//payable(classifica[i].currentOwner).transfer(balanceAnnuale/counterCanzoni);\n}\nbalanceAnnuale = 0;\nAnno =block.timestamp + 365 days;\n\n\n}\n\nfunction pagaUtilizzoCanzone(/*uint256 id*/) external payable{\nuint256 costo = 30000000000000000;\n//transferFrom(classifica[id].currentOwner,owner,costo);\n//payable(owner).transfer(costo);\n//incremento balance annuale\nbalanceAnnuale += costo;\n}\n\n\n\n}\n",
  "sourcePath": "E:\\Progetti\\Blockchain\\HealtyChian\\contracts\\prova.sol",
  "compiler": {
    "name": "solc",
    "version": "0.5.8+commit.23d335f2.Emscripten.clang"
  },
  "schemaVersion": "3.4.4",
  "updatedAt": "2022-02-19T09:41:31.761Z",
  "devdoc": {
    "methods": {}
  },
  "userdoc": {
    "methods": {}
  }
}